{"abi":[{"type":"constructor","inputs":[{"name":"_identityRegistry","type":"address","internalType":"address"},{"name":"_serviceRegistry","type":"address","internalType":"address"},{"name":"_feeRecipient","type":"address","internalType":"address"}],"stateMutability":"nonpayable"},{"type":"function","name":"ABANDONED_DISPUTE_TIMEOUT","inputs":[],"outputs":[{"name":"","type":"uint256","internalType":"uint256"}],"stateMutability":"view"},{"type":"function","name":"DELIVERY_TIMEOUT","inputs":[],"outputs":[{"name":"","type":"uint256","internalType":"uint256"}],"stateMutability":"view"},{"type":"function","name":"DISPUTE_TIMEOUT","inputs":[],"outputs":[{"name":"","type":"uint256","internalType":"uint256"}],"stateMutability":"view"},{"type":"function","name":"MAX_DEADLINE","inputs":[],"outputs":[{"name":"","type":"uint256","internalType":"uint256"}],"stateMutability":"view"},{"type":"function","name":"PROTOCOL_FEE_BPS","inputs":[],"outputs":[{"name":"","type":"uint256","internalType":"uint256"}],"stateMutability":"view"},{"type":"function","name":"acceptDeal","inputs":[{"name":"dealId","type":"uint256","internalType":"uint256"}],"outputs":[],"stateMutability":"nonpayable"},{"type":"function","name":"agentDealsAsBuyer","inputs":[{"name":"","type":"uint256","internalType":"uint256"},{"name":"","type":"uint256","internalType":"uint256"}],"outputs":[{"name":"","type":"uint256","internalType":"uint256"}],"stateMutability":"view"},{"type":"function","name":"agentDealsAsSeller","inputs":[{"name":"","type":"uint256","internalType":"uint256"},{"name":"","type":"uint256","internalType":"uint256"}],"outputs":[{"name":"","type":"uint256","internalType":"uint256"}],"stateMutability":"view"},{"type":"function","name":"claimRefund","inputs":[{"name":"dealId","type":"uint256","internalType":"uint256"}],"outputs":[],"stateMutability":"nonpayable"},{"type":"function","name":"confirmDelivery","inputs":[{"name":"dealId","type":"uint256","internalType":"uint256"}],"outputs":[],"stateMutability":"nonpayable"},{"type":"function","name":"contestDispute","inputs":[{"name":"dealId","type":"uint256","internalType":"uint256"}],"outputs":[],"stateMutability":"nonpayable"},{"type":"function","name":"createDeal","inputs":[{"name":"serviceId","type":"uint256","internalType":"uint256"},{"name":"buyerAgentId","type":"uint256","internalType":"uint256"},{"name":"sellerAgentId","type":"uint256","internalType":"uint256"},{"name":"paymentToken","type":"address","internalType":"address"},{"name":"amount","type":"uint256","internalType":"uint256"},{"name":"taskDescription","type":"string","internalType":"string"},{"name":"deadline","type":"uint256","internalType":"uint256"}],"outputs":[{"name":"dealId","type":"uint256","internalType":"uint256"}],"stateMutability":"nonpayable"},{"type":"function","name":"deals","inputs":[{"name":"","type":"uint256","internalType":"uint256"}],"outputs":[{"name":"dealId","type":"uint256","internalType":"uint256"},{"name":"serviceId","type":"uint256","internalType":"uint256"},{"name":"buyerAgentId","type":"uint256","internalType":"uint256"},{"name":"sellerAgentId","type":"uint256","internalType":"uint256"},{"name":"buyer","type":"address","internalType":"address"},{"name":"seller","type":"address","internalType":"address"},{"name":"paymentToken","type":"address","internalType":"address"},{"name":"amount","type":"uint256","internalType":"uint256"},{"name":"taskDescription","type":"string","internalType":"string"},{"name":"deliveryProof","type":"string","internalType":"string"},{"name":"status","type":"uint8","internalType":"enum NastarEscrow.DealStatus"},{"name":"createdAt","type":"uint256","internalType":"uint256"},{"name":"deadline","type":"uint256","internalType":"uint256"},{"name":"completedAt","type":"uint256","internalType":"uint256"},{"name":"disputedAt","type":"uint256","internalType":"uint256"}],"stateMutability":"view"},{"type":"function","name":"deliverDeal","inputs":[{"name":"dealId","type":"uint256","internalType":"uint256"},{"name":"proof","type":"string","internalType":"string"}],"outputs":[],"stateMutability":"nonpayable"},{"type":"function","name":"disputeDeal","inputs":[{"name":"dealId","type":"uint256","internalType":"uint256"}],"outputs":[],"stateMutability":"nonpayable"},{"type":"function","name":"feeRecipient","inputs":[],"outputs":[{"name":"","type":"address","internalType":"address"}],"stateMutability":"view"},{"type":"function","name":"getBuyerDeals","inputs":[{"name":"agentId","type":"uint256","internalType":"uint256"}],"outputs":[{"name":"","type":"uint256[]","internalType":"uint256[]"}],"stateMutability":"view"},{"type":"function","name":"getDeal","inputs":[{"name":"dealId","type":"uint256","internalType":"uint256"}],"outputs":[{"name":"","type":"tuple","internalType":"struct NastarEscrow.Deal","components":[{"name":"dealId","type":"uint256","internalType":"uint256"},{"name":"serviceId","type":"uint256","internalType":"uint256"},{"name":"buyerAgentId","type":"uint256","internalType":"uint256"},{"name":"sellerAgentId","type":"uint256","internalType":"uint256"},{"name":"buyer","type":"address","internalType":"address"},{"name":"seller","type":"address","internalType":"address"},{"name":"paymentToken","type":"address","internalType":"address"},{"name":"amount","type":"uint256","internalType":"uint256"},{"name":"taskDescription","type":"string","internalType":"string"},{"name":"deliveryProof","type":"string","internalType":"string"},{"name":"status","type":"uint8","internalType":"enum NastarEscrow.DealStatus"},{"name":"createdAt","type":"uint256","internalType":"uint256"},{"name":"deadline","type":"uint256","internalType":"uint256"},{"name":"completedAt","type":"uint256","internalType":"uint256"},{"name":"disputedAt","type":"uint256","internalType":"uint256"}]}],"stateMutability":"view"},{"type":"function","name":"getSellerDeals","inputs":[{"name":"agentId","type":"uint256","internalType":"uint256"}],"outputs":[{"name":"","type":"uint256[]","internalType":"uint256[]"}],"stateMutability":"view"},{"type":"function","name":"identityRegistry","inputs":[],"outputs":[{"name":"","type":"address","internalType":"contract IERC721"}],"stateMutability":"view"},{"type":"function","name":"nextDealId","inputs":[],"outputs":[{"name":"","type":"uint256","internalType":"uint256"}],"stateMutability":"view"},{"type":"function","name":"sellerClaimAfterTimeout","inputs":[{"name":"dealId","type":"uint256","internalType":"uint256"}],"outputs":[],"stateMutability":"nonpayable"},{"type":"function","name":"sellerClaimFromAbandonedDispute","inputs":[{"name":"dealId","type":"uint256","internalType":"uint256"}],"outputs":[],"stateMutability":"nonpayable"},{"type":"function","name":"serviceRegistry","inputs":[],"outputs":[{"name":"","type":"address","internalType":"address"}],"stateMutability":"view"},{"type":"event","name":"DealAccepted","inputs":[{"name":"dealId","type":"uint256","indexed":true,"internalType":"uint256"},{"name":"sellerAgentId","type":"uint256","indexed":true,"internalType":"uint256"}],"anonymous":false},{"type":"event","name":"DealCompleted","inputs":[{"name":"dealId","type":"uint256","indexed":true,"internalType":"uint256"},{"name":"sellerAmount","type":"uint256","indexed":false,"internalType":"uint256"},{"name":"feeAmount","type":"uint256","indexed":false,"internalType":"uint256"}],"anonymous":false},{"type":"event","name":"DealContested","inputs":[{"name":"dealId","type":"uint256","indexed":true,"internalType":"uint256"},{"name":"buyerAmount","type":"uint256","indexed":false,"internalType":"uint256"},{"name":"sellerAmount","type":"uint256","indexed":false,"internalType":"uint256"},{"name":"feeAmount","type":"uint256","indexed":false,"internalType":"uint256"}],"anonymous":false},{"type":"event","name":"DealCreated","inputs":[{"name":"dealId","type":"uint256","indexed":true,"internalType":"uint256"},{"name":"buyerAgentId","type":"uint256","indexed":true,"internalType":"uint256"},{"name":"sellerAgentId","type":"uint256","indexed":true,"internalType":"uint256"},{"name":"serviceId","type":"uint256","indexed":false,"internalType":"uint256"},{"name":"paymentToken","type":"address","indexed":false,"internalType":"address"},{"name":"amount","type":"uint256","indexed":false,"internalType":"uint256"},{"name":"deadline","type":"uint256","indexed":false,"internalType":"uint256"}],"anonymous":false},{"type":"event","name":"DealDelivered","inputs":[{"name":"dealId","type":"uint256","indexed":true,"internalType":"uint256"},{"name":"deliveryProof","type":"string","indexed":false,"internalType":"string"}],"anonymous":false},{"type":"event","name":"DealDisputed","inputs":[{"name":"dealId","type":"uint256","indexed":true,"internalType":"uint256"},{"name":"buyerAgentId","type":"uint256","indexed":true,"internalType":"uint256"},{"name":"disputedAt","type":"uint256","indexed":false,"internalType":"uint256"}],"anonymous":false},{"type":"event","name":"DealExpired","inputs":[{"name":"dealId","type":"uint256","indexed":true,"internalType":"uint256"}],"anonymous":false},{"type":"event","name":"DealRefunded","inputs":[{"name":"dealId","type":"uint256","indexed":true,"internalType":"uint256"},{"name":"amount","type":"uint256","indexed":false,"internalType":"uint256"}],"anonymous":false},{"type":"error","name":"AbandonedDisputeTimeoutNotReached","inputs":[{"name":"canClaimAt","type":"uint256","internalType":"uint256"},{"name":"now_","type":"uint256","internalType":"uint256"}]},{"type":"error","name":"DeadlineTooLong","inputs":[]},{"type":"error","name":"DealExpiredError","inputs":[]},{"type":"error","name":"DeliveryTimeoutNotReached","inputs":[{"name":"canClaimAt","type":"uint256","internalType":"uint256"},{"name":"now_","type":"uint256","internalType":"uint256"}]},{"type":"error","name":"DisputeTimeoutNotReached","inputs":[{"name":"canRefundAt","type":"uint256","internalType":"uint256"},{"name":"now_","type":"uint256","internalType":"uint256"}]},{"type":"error","name":"DisputeTimeoutReached","inputs":[]},{"type":"error","name":"InvalidStatus","inputs":[{"name":"expected","type":"uint8","internalType":"enum NastarEscrow.DealStatus"},{"name":"actual","type":"uint8","internalType":"enum NastarEscrow.DealStatus"}]},{"type":"error","name":"NotAgentOwner","inputs":[]},{"type":"error","name":"NotBuyer","inputs":[]},{"type":"error","name":"NotRefundable","inputs":[]},{"type":"error","name":"NotSeller","inputs":[]},{"type":"error","name":"SelfDeal","inputs":[]},{"type":"error","name":"TransferFailed","inputs":[]},{"type":"error","name":"ZeroAddress","inputs":[]},{"type":"error","name":"ZeroAmount","inputs":[]}],"bytecode":{"object":"0x60e0346200010a57601f62001d9638819003918201601f19168301916001600160401b038311848410176200010e578084926060946040528339810103126200010a576200004d8162000122565b906200006a6040620000626020840162000122565b920162000122565b916001600160a01b03908116908115908115620000fe575b8115620000f2575b50620000e05760805260a05260c052604051611c5e90816200013882396080518181816105dd015281816106860152611537015260a05181610499015260c0518181816111900152818161144e0152611b8d0152f35b60405163d92e233d60e01b8152600490fd5b90508316155f6200008a565b83811615915062000082565b5f80fd5b634e487b7160e01b5f52604160045260245ffd5b51906001600160a01b03821682036200010a5756fe60806040526004361015610011575f80fd5b5f3560e01c806303988f84146115f75780630497275214611566578063134e18f4146115225780632de74742146114e55780633916ba381461147d5780634690484014611439578063486265c61461141c5780634d9879e3146114005780635b7baf641461121f5780635fc9e9691461121a5780636f0e530f1461121a57806374f8087b14610fa95780637bce25dd14610f195780637d41702e14610e6657806382fd5bac14610c225780638d9fe72614610578578063be3782281461055d578063bf9d36fc146104e5578063c732bcd2146104c8578063cbcf252a14610484578063ce4c27ce14610446578063d2114e0c14610217578063fc8edb52146101935763fd84cb9714610121575f80fd5b3461018f57602036600319011261018f576004355f52600160205260405f2061014981611a3f565b60048101546001600160a01b0316330361017d57600a8101805460ff1916600317905542600d82015561017b90611a7f565b005b60405163239700bf60e11b8152600490fd5b5f80fd5b3461018f57602036600319011261018f57600435805f52600160205260405f206101bc81611a3f565b60048101546001600160a01b0316330361017d5780600a60029201600460ff1982541617905542600e8201550154907fd9ffa04b2f1a5f51cbd7a6f14375665b41da7e2fa73566d65b5b4f6402a47d3d6020604051428152a3005b3461018f57604036600319011261018f5767ffffffffffffffff60043560243582811161018f5761024c903690600401611906565b9092825f5260019360209185835260405f2090600a82019160ff83541660088110156104325788810361040b575060058101546001600160a01b031633036103f957600c81015442116103e7576009019085116103d3576102b7856102b1835461170b565b83611978565b5f96601f861160011461034d5750604093928592839261030f84807fffa92937e04d994d5080499878491811e39b0c12ace952efca20f1fc61afd9129b9c5f91610342575b508160011b915f199060031b1c19161790565b90555b600260ff198254161790558451958487958652850152848401375f828201840152601f01601f19168101030190a2005b90508501358d6102fc565b601f198616825f52855f20905f5b8181106103be57509260409695928895927fffa92937e04d994d5080499878491811e39b0c12ace952efca20f1fc61afd9129a9b878097106103a5575b505084811b019055610312565b8501355f19600388901b60f8161c191690558b80610398565b868b013583559987019991830191870161035b565b634e487b7160e01b5f52604160045260245ffd5b6040516372eec39360e01b8152600490fd5b604051635ec8235160e01b8152600490fd5b60405163f924664d60e01b8152600481018a9052604491610430906024830190611862565bfd5b634e487b7160e01b5f52602160045260245ffd5b3461018f576104543661186f565b905f52600360205260405f20805482101561018f5760209161047591611885565b90549060031b1c604051908152f35b3461018f575f36600319011261018f576040517f00000000000000000000000000000000000000000000000000000000000000006001600160a01b03168152602090f35b3461018f575f36600319011261018f57602060405162093a808152f35b3461018f5760208060031936011261018f576004355f52600360205260405f20906040519081602084549182815201935f5260205f20915f905b828210610546576105428561053681890382611760565b604051918291826118ae565b0390f35b83548652948501946001938401939091019061051f565b3461018f575f36600319011261018f57602060405160fa8152f35b3461018f5760e036600319011261018f576064356001600160a01b038116810361018f5760a43567ffffffffffffffff811161018f576105bc903690600401611906565b6040516331a9108f60e11b81526024803560048301529193916020908290817f00000000000000000000000000000000000000000000000000000000000000006001600160a01b03165afa908115610a7a575f91610c03575b50336001600160a01b0390911603610bf15760443560243514610bdf5760843515610bcd576001600160a01b03811615610bbb5762278d004201804211610b645760c43511610ba9574260c43511156103e7576040516331a9108f60e11b81526044356004820152916020836024817f00000000000000000000000000000000000000000000000000000000000000006001600160a01b03165afa928315610a7a575f93610b78575b505f54935f198514610b6457600185015f55604051936106dd85611743565b8585526004356020860152602435604086015260443560608601523360808601526001600160a01b0390811660a0860152831660c085015260843560e085015267ffffffffffffffff81116103d35760405191610744601f8301601f191660200184611760565b818352368282011161018f57815f92602092838601378301015261010083015260405180602081011067ffffffffffffffff6020830111176103d357602081016040525f81526101208301525f6101408301524261016083015260c4356101808301525f6101a08301525f6101c0830152825f52600160205260405f2090825182556020830151600183015560408301516002830155606083015160038301556004820160018060a01b03608085015116906bffffffffffffffffffffffff60a01b91828254161790556005830160018060a01b0360a08601511682825416179055600683019060018060a01b0360c0860151169082541617905560e0830151600783015561010083015180519067ffffffffffffffff82116103d35761087b82610872600887015461170b565b60088701611978565b602090601f8311600114610afa576108aa92915f9183610a85575b50508160011b915f199060031b1c19161790565b60088301555b61012083015180519067ffffffffffffffff82116103d3576108e2826108d9600987015461170b565b60098701611978565b602090601f8311600114610a905761091092915f9183610a855750508160011b915f199060031b1c19161790565b60098301555b61014083015191600883101561043257600e6101c05f9560209560ff8019600a87015416911617600a850155610160810151600b850155610180810151600c8501556101a0810151600d850155015191015560243583526002825261097e84604085206119c7565b60443583526003825261099484604085206119c7565b604051600435815260018060a01b03821683820152608435604082015260c435606082015260443590857f6bb122e4b14a41d111379967e6fd6c18cdd1cab504eea94e1765d3bded713ce6608060243593a46040516323b872dd60e01b8152336004820152306024820152608435604482015292839160649183916001600160a01b03165af1908115610a7a575f91610a4b575b5015610a3957602090604051908152f35b6040516312171d8360e31b8152600490fd5b610a6d915060203d602011610a73575b610a658183611760565b810190611934565b82610a28565b503d610a5b565b6040513d5f823e3d90fd5b015190508780610896565b90601f19831691600986015f5260205f20925f5b818110610ae25750908460019594939210610aca575b505050811b016009830155610916565b01515f1960f88460031b161c19169055868080610aba565b92936020600181928786015181550195019301610aa4565b90601f19831691600886015f5260205f20925f5b818110610b4c5750908460019594939210610b34575b505050811b0160088301556108b0565b01515f1960f88460031b161c19169055868080610b24565b92936020600181928786015181550195019301610b0e565b634e487b7160e01b5f52601160045260245ffd5b610b9b91935060203d602011610ba2575b610b938183611760565b810190611959565b91846106be565b503d610b89565b6040516354090af960e01b8152600490fd5b60405163d92e233d60e01b8152600490fd5b604051631f2a200560e01b8152600490fd5b60405163702d685960e01b8152600490fd5b604051630e41dcbf60e21b8152600490fd5b610c1c915060203d602011610ba257610b938183611760565b84610615565b3461018f57602036600319011261018f575f6101c0604051610c4381611743565b8281528260208201528260408201528260608201528260808201528260a08201528260c08201528260e082015260606101008201526060610120820152826101408201528261016082015282610180820152826101a082015201526004355f52600160205260405f2060405190610cb982611743565b8054825260018101546020830152600281015460408301526003810154606083015260048101546001600160a01b0390811660808401526005820154811660a084015260068201541660c0830152600781015460e0830152610d1d60088201611782565b610100830152610d2f60098201611782565b61012083015260ff600a8201541690600882101561043257600e91610140840152600b810154610160840152600c810154610180840152600d8101546101a084015201546101c08201526040518091602082528051602083015260208101516040830152604081015160608301526060810151608083015260018060a01b0360808201511660a083015260018060a01b0360a08201511660c083015260018060a01b0360c08201511660e083015260e08101516101008301526101008101516101c0610e25610e0d6101e09384610120880152610200870190611824565b610120850151868203601f1901610140880152611824565b92610e3a610140820151610160870190611862565b6101608101516101808601526101808101516101a08601526101a0810151828601520151908301520390f35b3461018f57602036600319011261018f57600435805f52600160205260405f20600a81019081549160ff831660088110156104325780610ef5575060058201546001600160a01b031633036103f957600c82015442116103e757600160039360ff19161790550154907f0fc3075ed12a7c6ae22f03793f31154b739fde75f708d06516d08d57a09b0d515f80a3005b60405163f924664d60e01b81525f6004820152604491610430906024830190611862565b3461018f57602036600319011261018f576004355f52600160205260405f20610f4181611a3f565b60058101546001600160a01b031633036103f957600c81015462093a808101809111610b6457804210610f8c57600a8201805460ff1916600317905542600d83015561017b82611a7f565b60449060405190628ea4db60e21b82526004820152426024820152fd5b3461018f5760208060031936011261018f57600435805f526001825260405f2090610fd382611a00565b6005820180546001600160a01b039391929190841633036103f957600e8101546203f4808101809111610b6457421161120857600a8101600760ff1982541617905542600d8201558360068201541690600781015460fa81029080820460fa1481151715610b645761104b612710899304809261194c565b9061105a8260011c809361194c565b957ff4be77ec062d5f7654b87bb36e58ea9f81d5f66dbdb9eac1665caf87f4a7cad060606040518581528987820152846040820152a280611181575b508681611111575b50505050816110a957005b915460405163a9059cbb60e01b815293166001600160a01b03166004840152602483015282908290815f81604481015b03925af1918215610a7a575f926110f4575b505015610a3957005b61110a9250803d10610a7357610a658183611760565b81806110eb565b60049384015460405163a9059cbb60e01b815291166001600160a01b031693810193909352602483015281806044810103815f865af1908115610a7a575f91611164575b5015610a39578585818661109e565b61117b9150863d8811610a7357610a658183611760565b86611155565b60405163a9059cbb60e01b81527f00000000000000000000000000000000000000000000000000000000000000006001600160a01b0316600482015260248101919091529091816044815f885af1908115610a7a575f916111eb575b5015610a3957869088611096565b6112029150883d8a11610a7357610a658183611760565b886111dd565b604051634e40bea160e11b8152600490fd5b6118e9565b3461018f5760208060031936011261018f57600435805f526001825260405f2090600482019060018060a01b039283835416330361017d57600a810180545f9060ff81166008811015610432578015806113f3575b1561133c57505050600660ff198254161790556001827f4877925cd1e279c5d3b475b58cf04cbb9e3b70c517a2305ac4933c34d28ca24f5f80a25b1561132a578360076110d9958795541691600684015416920154927f0d759492754b3de794f1a978637f5e06fa6d5f61b11065953d46285d9c83f5bd85604051868152a260405163a9059cbb60e01b81526001600160a01b0390911660048201526024810192909252909283919082905f9082906044820190565b604051631ba168fb60e11b8152600490fd5b60018114806113e6575b1561138557505050600660ff198254161790556001827f4877925cd1e279c5d3b475b58cf04cbb9e3b70c517a2305ac4933c34d28ca24f5f80a26112af565b91929091600414611398575b50506112af565b909150600e8301546203f4808101809111610b64578042106113c85750600560019260ff19161790558680611391565b60449060405190635393528b60e11b82526004820152426024820152fd5b50600c8501544211611346565b50600c8501544211611274565b3461018f575f36600319011261018f5760205f54604051908152f35b3461018f575f36600319011261018f5760206040516203f4808152f35b3461018f575f36600319011261018f576040517f00000000000000000000000000000000000000000000000000000000000000006001600160a01b03168152602090f35b3461018f5760208060031936011261018f576004355f52600260205260405f20906040519081602084549182815201935f5260205f20915f905b8282106114ce576105428561053681890382611760565b8354865294850194600193840193909101906114b7565b3461018f576114f33661186f565b905f52600260205260405f20805482101561018f5760209161151491611885565b90546040519160031b1c8152f35b3461018f575f36600319011261018f576040517f00000000000000000000000000000000000000000000000000000000000000006001600160a01b03168152602090f35b3461018f57602036600319011261018f576004355f52600160205260405f2061158e81611a00565b60058101546001600160a01b031633036103f957600e81015462278d008101809111610b64578042106115d957600a8201805460ff1916600317905542600d83015561017b82611a7f565b60449060405190636a3d3fe360e01b82526004820152426024820152fd5b3461018f57602036600319011261018f576004355f52600160205260405f20805490600181015491600282015491600381015490600160a01b6001900380600483015416908060058401541690600684015416946007840154906008850161165e90611782565b9061166b60098701611782565b92600a87015460ff1698600b88015495600c89015497600d8a015499600e01549a6040519e8f9e8f916101e0988352602083015260408201526060015260808d015260a08c015260c08b015260e08a0152806101008a015288016116ce91611824565b8781036101208901526116e091611824565b9461014087016116ef91611862565b6101608601526101808501526101a08401526101c08301520390f35b90600182811c92168015611739575b602083101461172557565b634e487b7160e01b5f52602260045260245ffd5b91607f169161171a565b6101e0810190811067ffffffffffffffff8211176103d357604052565b90601f8019910116810190811067ffffffffffffffff8211176103d357604052565b9060405191825f82546117948161170b565b908184526020946001916001811690815f1461180257506001146117c4575b5050506117c292500383611760565b565b5f90815285812095935091905b8183106117ea5750506117c293508201015f80806117b3565b855488840185015294850194879450918301916117d1565b925050506117c294925060ff191682840152151560051b8201015f80806117b3565b91908251928382525f5b84811061184e575050825f602080949584010152601f8019910116010190565b60208183018101518483018201520161182e565b9060088210156104325752565b604090600319011261018f576004359060243590565b805482101561189a575f5260205f2001905f90565b634e487b7160e01b5f52603260045260245ffd5b60209060206040818301928281528551809452019301915f5b8281106118d5575050505090565b8351855293810193928101926001016118c7565b3461018f575f36600319011261018f57602060405162278d008152f35b9181601f8401121561018f5782359167ffffffffffffffff831161018f576020838186019501011161018f57565b9081602091031261018f5751801515810361018f5790565b91908203918211610b6457565b9081602091031261018f57516001600160a01b038116810361018f5790565b601f821161198557505050565b5f5260205f20906020601f840160051c830193106119bd575b601f0160051c01905b8181106119b2575050565b5f81556001016119a7565b909150819061199e565b8054680100000000000000008110156103d3576119e991600182018155611885565b819291549060031b91821b915f19901b1916179055565b600a015460ff1660088110156104325760048103611a1b5750565b60405163f924664d60e01b8152600480820152604491610430906024830190611862565b600a015460ff1660088110156104325760028103611a5a5750565b60405163f924664d60e01b815260026004820152604491610430906024830190611862565b600681015460078201546001600160a01b03929091831660fa808402908482041484151715610b6457612710611ab79104809461194c565b82549160409586958651948486527f288c4f69e41b68e52705717bf70617f3c77f4a2de96489356afc0591a806448560209887848b809a0152a280611b7f575b5060059490940154865163a9059cbb60e01b815294166001600160a01b0316600485015260248401919091528290815f816044810103925af1918215611b75575f92611b58575b505015611b485750565b516312171d8360e31b8152600490fd5b611b6e9250803d10610a7357610a658183611760565b5f80611b3e565b83513d5f823e3d90fd5b875163a9059cbb60e01b81527f00000000000000000000000000000000000000000000000000000000000000006001600160a01b03166004820152602481019190915292949193909290816044815f885af1908115611c1e575f91611c01575b5015611bf05792909184925f611af7565b85516312171d8360e31b8152600490fd5b611c189150863d8811610a7357610a658183611760565b5f611bdf565b87513d5f823e3d90fdfea26469706673582212209395cc1116537c2c5aed9d45071258af7c0fe27646041a9293a63e5fca24715a64736f6c63430008170033","linkReferences":{}},"methodIdentifiers":{"ABANDONED_DISPUTE_TIMEOUT()":"5fc9e969","DELIVERY_TIMEOUT()":"c732bcd2","DISPUTE_TIMEOUT()":"486265c6","MAX_DEADLINE()":"6f0e530f","PROTOCOL_FEE_BPS()":"be378228","acceptDeal(uint256)":"7d41702e","agentDealsAsBuyer(uint256,uint256)":"2de74742","agentDealsAsSeller(uint256,uint256)":"ce4c27ce","claimRefund(uint256)":"5b7baf64","confirmDelivery(uint256)":"fd84cb97","contestDispute(uint256)":"74f8087b","createDeal(uint256,uint256,uint256,address,uint256,string,uint256)":"8d9fe726","deals(uint256)":"03988f84","deliverDeal(uint256,string)":"d2114e0c","disputeDeal(uint256)":"fc8edb52","feeRecipient()":"46904840","getBuyerDeals(uint256)":"3916ba38","getDeal(uint256)":"82fd5bac","getSellerDeals(uint256)":"bf9d36fc","identityRegistry()":"134e18f4","nextDealId()":"4d9879e3","sellerClaimAfterTimeout(uint256)":"7bce25dd","sellerClaimFromAbandonedDispute(uint256)":"04972752","serviceRegistry()":"cbcf252a"},"id":22}