{"abi":[{"type":"constructor","inputs":[{"name":"_identityRegistry","type":"address","internalType":"address"},{"name":"_serviceRegistry","type":"address","internalType":"address"}],"stateMutability":"nonpayable"},{"type":"function","name":"ABANDONED_DISPUTE_TIMEOUT","inputs":[],"outputs":[{"name":"","type":"uint256","internalType":"uint256"}],"stateMutability":"view"},{"type":"function","name":"DELIVERY_TIMEOUT","inputs":[],"outputs":[{"name":"","type":"uint256","internalType":"uint256"}],"stateMutability":"view"},{"type":"function","name":"DISPUTE_TIMEOUT","inputs":[],"outputs":[{"name":"","type":"uint256","internalType":"uint256"}],"stateMutability":"view"},{"type":"function","name":"MAX_DEADLINE","inputs":[],"outputs":[{"name":"","type":"uint256","internalType":"uint256"}],"stateMutability":"view"},{"type":"function","name":"acceptDeal","inputs":[{"name":"dealId","type":"uint256","internalType":"uint256"}],"outputs":[],"stateMutability":"nonpayable"},{"type":"function","name":"agentDealsAsBuyer","inputs":[{"name":"","type":"uint256","internalType":"uint256"},{"name":"","type":"uint256","internalType":"uint256"}],"outputs":[{"name":"","type":"uint256","internalType":"uint256"}],"stateMutability":"view"},{"type":"function","name":"agentDealsAsSeller","inputs":[{"name":"","type":"uint256","internalType":"uint256"},{"name":"","type":"uint256","internalType":"uint256"}],"outputs":[{"name":"","type":"uint256","internalType":"uint256"}],"stateMutability":"view"},{"type":"function","name":"claimRefund","inputs":[{"name":"dealId","type":"uint256","internalType":"uint256"}],"outputs":[],"stateMutability":"nonpayable"},{"type":"function","name":"confirmDelivery","inputs":[{"name":"dealId","type":"uint256","internalType":"uint256"}],"outputs":[],"stateMutability":"nonpayable"},{"type":"function","name":"createDeal","inputs":[{"name":"serviceId","type":"uint256","internalType":"uint256"},{"name":"buyerAgentId","type":"uint256","internalType":"uint256"},{"name":"sellerAgentId","type":"uint256","internalType":"uint256"},{"name":"paymentToken","type":"address","internalType":"address"},{"name":"amount","type":"uint256","internalType":"uint256"},{"name":"taskDescription","type":"string","internalType":"string"},{"name":"deadline","type":"uint256","internalType":"uint256"}],"outputs":[{"name":"dealId","type":"uint256","internalType":"uint256"}],"stateMutability":"nonpayable"},{"type":"function","name":"deals","inputs":[{"name":"","type":"uint256","internalType":"uint256"}],"outputs":[{"name":"dealId","type":"uint256","internalType":"uint256"},{"name":"serviceId","type":"uint256","internalType":"uint256"},{"name":"buyerAgentId","type":"uint256","internalType":"uint256"},{"name":"sellerAgentId","type":"uint256","internalType":"uint256"},{"name":"buyer","type":"address","internalType":"address"},{"name":"seller","type":"address","internalType":"address"},{"name":"paymentToken","type":"address","internalType":"address"},{"name":"amount","type":"uint256","internalType":"uint256"},{"name":"taskDescription","type":"string","internalType":"string"},{"name":"deliveryProof","type":"string","internalType":"string"},{"name":"status","type":"uint8","internalType":"enum NastarEscrow.DealStatus"},{"name":"createdAt","type":"uint256","internalType":"uint256"},{"name":"deadline","type":"uint256","internalType":"uint256"},{"name":"completedAt","type":"uint256","internalType":"uint256"},{"name":"disputedAt","type":"uint256","internalType":"uint256"}],"stateMutability":"view"},{"type":"function","name":"deliverDeal","inputs":[{"name":"dealId","type":"uint256","internalType":"uint256"},{"name":"proof","type":"string","internalType":"string"}],"outputs":[],"stateMutability":"nonpayable"},{"type":"function","name":"disputeDeal","inputs":[{"name":"dealId","type":"uint256","internalType":"uint256"}],"outputs":[],"stateMutability":"nonpayable"},{"type":"function","name":"getBuyerDeals","inputs":[{"name":"agentId","type":"uint256","internalType":"uint256"}],"outputs":[{"name":"","type":"uint256[]","internalType":"uint256[]"}],"stateMutability":"view"},{"type":"function","name":"getDeal","inputs":[{"name":"dealId","type":"uint256","internalType":"uint256"}],"outputs":[{"name":"","type":"tuple","internalType":"struct NastarEscrow.Deal","components":[{"name":"dealId","type":"uint256","internalType":"uint256"},{"name":"serviceId","type":"uint256","internalType":"uint256"},{"name":"buyerAgentId","type":"uint256","internalType":"uint256"},{"name":"sellerAgentId","type":"uint256","internalType":"uint256"},{"name":"buyer","type":"address","internalType":"address"},{"name":"seller","type":"address","internalType":"address"},{"name":"paymentToken","type":"address","internalType":"address"},{"name":"amount","type":"uint256","internalType":"uint256"},{"name":"taskDescription","type":"string","internalType":"string"},{"name":"deliveryProof","type":"string","internalType":"string"},{"name":"status","type":"uint8","internalType":"enum NastarEscrow.DealStatus"},{"name":"createdAt","type":"uint256","internalType":"uint256"},{"name":"deadline","type":"uint256","internalType":"uint256"},{"name":"completedAt","type":"uint256","internalType":"uint256"},{"name":"disputedAt","type":"uint256","internalType":"uint256"}]}],"stateMutability":"view"},{"type":"function","name":"getSellerDeals","inputs":[{"name":"agentId","type":"uint256","internalType":"uint256"}],"outputs":[{"name":"","type":"uint256[]","internalType":"uint256[]"}],"stateMutability":"view"},{"type":"function","name":"identityRegistry","inputs":[],"outputs":[{"name":"","type":"address","internalType":"contract IERC721"}],"stateMutability":"view"},{"type":"function","name":"nextDealId","inputs":[],"outputs":[{"name":"","type":"uint256","internalType":"uint256"}],"stateMutability":"view"},{"type":"function","name":"sellerClaimAfterTimeout","inputs":[{"name":"dealId","type":"uint256","internalType":"uint256"}],"outputs":[],"stateMutability":"nonpayable"},{"type":"function","name":"sellerClaimFromAbandonedDispute","inputs":[{"name":"dealId","type":"uint256","internalType":"uint256"}],"outputs":[],"stateMutability":"nonpayable"},{"type":"function","name":"serviceRegistry","inputs":[],"outputs":[{"name":"","type":"address","internalType":"address"}],"stateMutability":"view"},{"type":"event","name":"DealAccepted","inputs":[{"name":"dealId","type":"uint256","indexed":true,"internalType":"uint256"},{"name":"sellerAgentId","type":"uint256","indexed":true,"internalType":"uint256"}],"anonymous":false},{"type":"event","name":"DealCompleted","inputs":[{"name":"dealId","type":"uint256","indexed":true,"internalType":"uint256"},{"name":"amount","type":"uint256","indexed":false,"internalType":"uint256"}],"anonymous":false},{"type":"event","name":"DealCreated","inputs":[{"name":"dealId","type":"uint256","indexed":true,"internalType":"uint256"},{"name":"buyerAgentId","type":"uint256","indexed":true,"internalType":"uint256"},{"name":"sellerAgentId","type":"uint256","indexed":true,"internalType":"uint256"},{"name":"serviceId","type":"uint256","indexed":false,"internalType":"uint256"},{"name":"paymentToken","type":"address","indexed":false,"internalType":"address"},{"name":"amount","type":"uint256","indexed":false,"internalType":"uint256"},{"name":"deadline","type":"uint256","indexed":false,"internalType":"uint256"}],"anonymous":false},{"type":"event","name":"DealDelivered","inputs":[{"name":"dealId","type":"uint256","indexed":true,"internalType":"uint256"},{"name":"deliveryProof","type":"string","indexed":false,"internalType":"string"}],"anonymous":false},{"type":"event","name":"DealDisputed","inputs":[{"name":"dealId","type":"uint256","indexed":true,"internalType":"uint256"},{"name":"buyerAgentId","type":"uint256","indexed":true,"internalType":"uint256"},{"name":"disputedAt","type":"uint256","indexed":false,"internalType":"uint256"}],"anonymous":false},{"type":"event","name":"DealExpired","inputs":[{"name":"dealId","type":"uint256","indexed":true,"internalType":"uint256"}],"anonymous":false},{"type":"event","name":"DealRefunded","inputs":[{"name":"dealId","type":"uint256","indexed":true,"internalType":"uint256"},{"name":"amount","type":"uint256","indexed":false,"internalType":"uint256"}],"anonymous":false},{"type":"error","name":"AbandonedDisputeTimeoutNotReached","inputs":[{"name":"canClaimAt","type":"uint256","internalType":"uint256"},{"name":"now_","type":"uint256","internalType":"uint256"}]},{"type":"error","name":"DeadlineTooLong","inputs":[]},{"type":"error","name":"DealExpiredError","inputs":[]},{"type":"error","name":"DeliveryTimeoutNotReached","inputs":[{"name":"canClaimAt","type":"uint256","internalType":"uint256"},{"name":"now_","type":"uint256","internalType":"uint256"}]},{"type":"error","name":"DisputeTimeoutNotReached","inputs":[{"name":"canRefundAt","type":"uint256","internalType":"uint256"},{"name":"now_","type":"uint256","internalType":"uint256"}]},{"type":"error","name":"InvalidStatus","inputs":[{"name":"expected","type":"uint8","internalType":"enum NastarEscrow.DealStatus"},{"name":"actual","type":"uint8","internalType":"enum NastarEscrow.DealStatus"}]},{"type":"error","name":"NotAgentOwner","inputs":[]},{"type":"error","name":"NotBuyer","inputs":[]},{"type":"error","name":"NotRefundable","inputs":[]},{"type":"error","name":"NotSeller","inputs":[]},{"type":"error","name":"SelfDeal","inputs":[]},{"type":"error","name":"TransferFailed","inputs":[]},{"type":"error","name":"ZeroAddress","inputs":[]},{"type":"error","name":"ZeroAmount","inputs":[]}],"bytecode":{"object":"0x60c034620000cc57601f62001a6e38819003918201601f19168301916001600160401b03831184841017620000d0578084926040948552833981010312620000cc576200005a60206200005283620000e4565b9201620000e4565b906001600160a01b03908116908115908115620000c0575b50620000ae5760805260a0526040516119749081620000fa823960805181818161067a01528181610723015261139a015260a051816105510152f35b60405163d92e233d60e01b8152600490fd5b90508216155f62000072565b5f80fd5b634e487b7160e01b5f52604160045260245ffd5b51906001600160a01b0382168203620000cc5756fe60806040526004361015610011575f80fd5b5f3560e01c806303988f841461150257806304972752146113c9578063134e18f4146113855780632de74742146113485780633916ba38146112e0578063486265c6146112c35780634d9879e3146112a75780635b7baf64146110c65780635fc9e969146110c15780636f0e530f146110c15780637bce25dd14610f895780637d41702e14610ed657806382fd5bac14610c925780638d9fe72614610615578063bf9d36fc1461059d578063c732bcd214610580578063cbcf252a1461053c578063ce4c27ce146104fe578063d2114e0c146102cf578063fc8edb521461024b5763fd84cb9714610100575f80fd5b346102475760208060031936011261024757600435805f526001825260405f209061012a826118fe565b60048201546001600160a01b0391908216330361023557828492600a6101d09501600360ff1982541617905542600d83015560078160058401541691600684015416920154927fd78ea1895a54fef557b21f240ae42cdf7bed32528d9d4f42f81458e17a1db48285604051868152a260405163a9059cbb60e01b81526001600160a01b0390911660048201526024810192909252909283919082905f9082906044820190565b03925af191821561022a575f926101fd575b5050156101eb57005b6040516312171d8360e31b8152600490fd5b61021c9250803d10610223575b610214818361166b565b81019061183f565b5f806101e2565b503d61020a565b6040513d5f823e3d90fd5b60405163239700bf60e11b8152600490fd5b5f80fd5b3461024757602036600319011261024757600435805f52600160205260405f20610274816118fe565b60048101546001600160a01b031633036102355780600a60029201600460ff1982541617905542600e8201550154907fd9ffa04b2f1a5f51cbd7a6f14375665b41da7e2fa73566d65b5b4f6402a47d3d6020604051428152a3005b346102475760403660031901126102475767ffffffffffffffff60043560243582811161024757610304903690600401611811565b9092825f5260019360209185835260405f2090600a82019160ff83541660078110156104ea578881036104c3575060058101546001600160a01b031633036104b157600c810154421161049f5760090190851161048b5761036f856103698354611616565b83611876565b5f96601f8611600114610405575060409392859283926103c784807fffa92937e04d994d5080499878491811e39b0c12ace952efca20f1fc61afd9129b9c5f916103fa575b508160011b915f199060031b1c19161790565b90555b600260ff198254161790558451958487958652850152848401375f828201840152601f01601f19168101030190a2005b90508501358d6103b4565b601f198616825f52855f20905f5b81811061047657509260409695928895927fffa92937e04d994d5080499878491811e39b0c12ace952efca20f1fc61afd9129a9b8780971061045d575b505084811b0190556103ca565b8501355f19600388901b60f8161c191690558b80610450565b868b0135835599870199918301918701610413565b634e487b7160e01b5f52604160045260245ffd5b6040516372eec39360e01b8152600490fd5b604051635ec8235160e01b8152600490fd5b60405163f924664d60e01b8152600481018a90526044916104e890602483019061176d565bfd5b634e487b7160e01b5f52602160045260245ffd5b346102475761050c3661177a565b905f52600360205260405f2080548210156102475760209161052d91611790565b90549060031b1c604051908152f35b34610247575f366003190112610247576040517f00000000000000000000000000000000000000000000000000000000000000006001600160a01b03168152602090f35b34610247575f36600319011261024757602060405162093a808152f35b3461024757602080600319360112610247576004355f52600360205260405f20906040519081602084549182815201935f5260205f20915f905b8282106105fe576105fa856105ee8189038261166b565b604051918291826117b9565b0390f35b8354865294850194600193840193909101906105d7565b346102475760e0366003190112610247576064356001600160a01b03811681036102475760a43567ffffffffffffffff811161024757610659903690600401611811565b6040516331a9108f60e11b81526024803560048301529193916020908290817f00000000000000000000000000000000000000000000000000000000000000006001600160a01b03165afa90811561022a575f91610c73575b50336001600160a01b0390911603610c615760443560243514610c4f5760843515610c3d576001600160a01b03811615610c2b5762278d004201804211610bd45760c43511610c19574260c435111561049f576040516331a9108f60e11b81526044356004820152916020836024817f00000000000000000000000000000000000000000000000000000000000000006001600160a01b03165afa92831561022a575f93610be8575b505f54935f198514610bd457600185015f556040519361077a8561164e565b8585526004356020860152602435604086015260443560608601523360808601526001600160a01b0390811660a0860152831660c085015260843560e085015267ffffffffffffffff811161048b57604051916107e1601f8301601f19166020018461166b565b818352368282011161024757815f92602092838601378301015261010083015260405180602081011067ffffffffffffffff60208301111761048b57602081016040525f81526101208301525f6101408301524261016083015260c4356101808301525f6101a08301525f6101c0830152825f52600160205260405f2090825182556020830151600183015560408301516002830155606083015160038301556004820160018060a01b03608085015116906bffffffffffffffffffffffff60a01b91828254161790556005830160018060a01b0360a08601511682825416179055600683019060018060a01b0360c0860151169082541617905560e0830151600783015561010083015180519067ffffffffffffffff821161048b576109188261090f6008870154611616565b60088701611876565b602090601f8311600114610b6a5761094792915f9183610af5575b50508160011b915f199060031b1c19161790565b60088301555b61012083015180519067ffffffffffffffff821161048b5761097f826109766009870154611616565b60098701611876565b602090601f8311600114610b00576109ad92915f9183610af55750508160011b915f199060031b1c19161790565b60098301555b6101408301519160078310156104ea57600e6101c05f9560209560ff8019600a87015416911617600a850155610160810151600b850155610180810151600c8501556101a0810151600d8501550151910155602435835260028252610a1b84604085206118c5565b604435835260038252610a3184604085206118c5565b604051600435815260018060a01b03821683820152608435604082015260c435606082015260443590857f6bb122e4b14a41d111379967e6fd6c18cdd1cab504eea94e1765d3bded713ce6608060243593a46040516323b872dd60e01b8152336004820152306024820152608435604482015292839160649183916001600160a01b03165af190811561022a575f91610ad6575b50156101eb57602090604051908152f35b610aef915060203d60201161022357610214818361166b565b82610ac5565b015190508780610933565b90601f19831691600986015f5260205f20925f5b818110610b525750908460019594939210610b3a575b505050811b0160098301556109b3565b01515f1960f88460031b161c19169055868080610b2a565b92936020600181928786015181550195019301610b14565b90601f19831691600886015f5260205f20925f5b818110610bbc5750908460019594939210610ba4575b505050811b01600883015561094d565b01515f1960f88460031b161c19169055868080610b94565b92936020600181928786015181550195019301610b7e565b634e487b7160e01b5f52601160045260245ffd5b610c0b91935060203d602011610c12575b610c03818361166b565b810190611857565b918461075b565b503d610bf9565b6040516354090af960e01b8152600490fd5b60405163d92e233d60e01b8152600490fd5b604051631f2a200560e01b8152600490fd5b60405163702d685960e01b8152600490fd5b604051630e41dcbf60e21b8152600490fd5b610c8c915060203d602011610c1257610c03818361166b565b846106b2565b34610247576020366003190112610247575f6101c0604051610cb38161164e565b8281528260208201528260408201528260608201528260808201528260a08201528260c08201528260e082015260606101008201526060610120820152826101408201528261016082015282610180820152826101a082015201526004355f52600160205260405f2060405190610d298261164e565b8054825260018101546020830152600281015460408301526003810154606083015260048101546001600160a01b0390811660808401526005820154811660a084015260068201541660c0830152600781015460e0830152610d8d6008820161168d565b610100830152610d9f6009820161168d565b61012083015260ff600a820154169060078210156104ea57600e91610140840152600b810154610160840152600c810154610180840152600d8101546101a084015201546101c08201526040518091602082528051602083015260208101516040830152604081015160608301526060810151608083015260018060a01b0360808201511660a083015260018060a01b0360a08201511660c083015260018060a01b0360c08201511660e083015260e08101516101008301526101008101516101c0610e95610e7d6101e0938461012088015261020087019061172f565b610120850151868203601f190161014088015261172f565b92610eaa61014082015161016087019061176d565b6101608101516101808601526101808101516101a08601526101a0810151828601520151908301520390f35b3461024757602036600319011261024757600435805f52600160205260405f20600a81019081549160ff831660078110156104ea5780610f65575060058201546001600160a01b031633036104b157600c820154421161049f57600160039360ff19161790550154907f0fc3075ed12a7c6ae22f03793f31154b739fde75f708d06516d08d57a09b0d515f80a3005b60405163f924664d60e01b81525f60048201526044916104e890602483019061176d565b346102475760208060031936011261024757600435805f526001825260405f20610fb2816118fe565b60058101546001600160a01b03908116903382036104b157600c83015462093a808101809111610bd4578042106110a457509161106d939160078694600a8401600360ff1982541617905542600d850155600684015416920154927fd78ea1895a54fef557b21f240ae42cdf7bed32528d9d4f42f81458e17a1db48285604051868152a260405163a9059cbb60e01b81526001600160a01b0390911660048201526024810192909252909283919082905f9082906044820190565b03925af191821561022a575f92611087575050156101eb57005b61109d9250803d1061022357610214818361166b565b81806101e2565b60449060405190628ea4db60e21b82526004820152426024820152fd5b6117f4565b346102475760208060031936011261024757600435805f526001825260405f2090600482019060018060a01b039283835416330361023557600a810180545f9060ff811660078110156104ea5780158061129a575b156111e357505050600660ff198254161790556001827f4877925cd1e279c5d3b475b58cf04cbb9e3b70c517a2305ac4933c34d28ca24f5f80a25b156111d15783600761106d958795541691600684015416920154927f0d759492754b3de794f1a978637f5e06fa6d5f61b11065953d46285d9c83f5bd85604051868152a260405163a9059cbb60e01b81526001600160a01b0390911660048201526024810192909252909283919082905f9082906044820190565b604051631ba168fb60e11b8152600490fd5b600181148061128d575b1561122c57505050600660ff198254161790556001827f4877925cd1e279c5d3b475b58cf04cbb9e3b70c517a2305ac4933c34d28ca24f5f80a2611156565b9192909160041461123f575b5050611156565b909150600e8301546203f4808101809111610bd45780421061126f5750600560019260ff19161790558680611238565b60449060405190635393528b60e11b82526004820152426024820152fd5b50600c85015442116111ed565b50600c850154421161111b565b34610247575f3660031901126102475760205f54604051908152f35b34610247575f3660031901126102475760206040516203f4808152f35b3461024757602080600319360112610247576004355f52600260205260405f20906040519081602084549182815201935f5260205f20915f905b828210611331576105fa856105ee8189038261166b565b83548652948501946001938401939091019061131a565b34610247576113563661177a565b905f52600260205260405f2080548210156102475760209161137791611790565b90546040519160031b1c8152f35b34610247575f366003190112610247576040517f00000000000000000000000000000000000000000000000000000000000000006001600160a01b03168152602090f35b346102475760208060031936011261024757600435805f526001825260405f20600a810180549060ff821660078110156104ea57600481036114de575060058301546001600160a01b03908116929091903384036104b157600e85015462278d008101809111610bd4578042106114c0575086949261106d969492600360079360ff191617905542600d850155600684015416920154927fd78ea1895a54fef557b21f240ae42cdf7bed32528d9d4f42f81458e17a1db48285604051868152a260405163a9059cbb60e01b81526001600160a01b0390911660048201526024810192909252909283919082905f9082906044820190565b60449060405190636a3d3fe360e01b82526004820152426024820152fd5b60405163f924664d60e01b81526004808201526044916104e890602483019061176d565b34610247576020366003190112610247576004355f52600160205260405f20805490600181015491600282015491600381015490600160a01b600190038060048301541690806005840154169060068401541694600784015490600885016115699061168d565b906115766009870161168d565b92600a87015460ff1698600b88015495600c89015497600d8a015499600e01549a6040519e8f9e8f916101e0988352602083015260408201526060015260808d015260a08c015260c08b015260e08a0152806101008a015288016115d99161172f565b8781036101208901526115eb9161172f565b9461014087016115fa9161176d565b6101608601526101808501526101a08401526101c08301520390f35b90600182811c92168015611644575b602083101461163057565b634e487b7160e01b5f52602260045260245ffd5b91607f1691611625565b6101e0810190811067ffffffffffffffff82111761048b57604052565b90601f8019910116810190811067ffffffffffffffff82111761048b57604052565b9060405191825f825461169f81611616565b908184526020946001916001811690815f1461170d57506001146116cf575b5050506116cd9250038361166b565b565b5f90815285812095935091905b8183106116f55750506116cd93508201015f80806116be565b855488840185015294850194879450918301916116dc565b925050506116cd94925060ff191682840152151560051b8201015f80806116be565b91908251928382525f5b848110611759575050825f602080949584010152601f8019910116010190565b602081830181015184830182015201611739565b9060078210156104ea5752565b6040906003190112610247576004359060243590565b80548210156117a5575f5260205f2001905f90565b634e487b7160e01b5f52603260045260245ffd5b60209060206040818301928281528551809452019301915f5b8281106117e0575050505090565b8351855293810193928101926001016117d2565b34610247575f36600319011261024757602060405162278d008152f35b9181601f840112156102475782359167ffffffffffffffff8311610247576020838186019501011161024757565b90816020910312610247575180151581036102475790565b9081602091031261024757516001600160a01b03811681036102475790565b601f821161188357505050565b5f5260205f20906020601f840160051c830193106118bb575b601f0160051c01905b8181106118b0575050565b5f81556001016118a5565b909150819061189c565b80546801000000000000000081101561048b576118e791600182018155611790565b819291549060031b91821b915f19901b1916179055565b600a015460ff1660078110156104ea57600281036119195750565b60405163f924664d60e01b8152600260048201526044916104e890602483019061176d56fea2646970667358221220a2901ead1cb6fc72e15927081431fab8d9df26aaebd0c0d53cab147330d8f6d864736f6c63430008170033","linkReferences":{}},"methodIdentifiers":{"ABANDONED_DISPUTE_TIMEOUT()":"5fc9e969","DELIVERY_TIMEOUT()":"c732bcd2","DISPUTE_TIMEOUT()":"486265c6","MAX_DEADLINE()":"6f0e530f","acceptDeal(uint256)":"7d41702e","agentDealsAsBuyer(uint256,uint256)":"2de74742","agentDealsAsSeller(uint256,uint256)":"ce4c27ce","claimRefund(uint256)":"5b7baf64","confirmDelivery(uint256)":"fd84cb97","createDeal(uint256,uint256,uint256,address,uint256,string,uint256)":"8d9fe726","deals(uint256)":"03988f84","deliverDeal(uint256,string)":"d2114e0c","disputeDeal(uint256)":"fc8edb52","getBuyerDeals(uint256)":"3916ba38","getDeal(uint256)":"82fd5bac","getSellerDeals(uint256)":"bf9d36fc","identityRegistry()":"134e18f4","nextDealId()":"4d9879e3","sellerClaimAfterTimeout(uint256)":"7bce25dd","sellerClaimFromAbandonedDispute(uint256)":"04972752","serviceRegistry()":"cbcf252a"},"id":22}