{"abi":[{"type":"constructor","inputs":[{"name":"_identityRegistry","type":"address","internalType":"address"},{"name":"_serviceRegistry","type":"address","internalType":"address"}],"stateMutability":"nonpayable"},{"type":"function","name":"DISPUTE_TIMEOUT","inputs":[],"outputs":[{"name":"","type":"uint256","internalType":"uint256"}],"stateMutability":"view"},{"type":"function","name":"MAX_DEADLINE","inputs":[],"outputs":[{"name":"","type":"uint256","internalType":"uint256"}],"stateMutability":"view"},{"type":"function","name":"acceptDeal","inputs":[{"name":"dealId","type":"uint256","internalType":"uint256"}],"outputs":[],"stateMutability":"nonpayable"},{"type":"function","name":"agentDealsAsBuyer","inputs":[{"name":"","type":"uint256","internalType":"uint256"},{"name":"","type":"uint256","internalType":"uint256"}],"outputs":[{"name":"","type":"uint256","internalType":"uint256"}],"stateMutability":"view"},{"type":"function","name":"agentDealsAsSeller","inputs":[{"name":"","type":"uint256","internalType":"uint256"},{"name":"","type":"uint256","internalType":"uint256"}],"outputs":[{"name":"","type":"uint256","internalType":"uint256"}],"stateMutability":"view"},{"type":"function","name":"claimRefund","inputs":[{"name":"dealId","type":"uint256","internalType":"uint256"}],"outputs":[],"stateMutability":"nonpayable"},{"type":"function","name":"confirmDelivery","inputs":[{"name":"dealId","type":"uint256","internalType":"uint256"}],"outputs":[],"stateMutability":"nonpayable"},{"type":"function","name":"createDeal","inputs":[{"name":"serviceId","type":"uint256","internalType":"uint256"},{"name":"buyerAgentId","type":"uint256","internalType":"uint256"},{"name":"sellerAgentId","type":"uint256","internalType":"uint256"},{"name":"paymentToken","type":"address","internalType":"address"},{"name":"amount","type":"uint256","internalType":"uint256"},{"name":"taskDescription","type":"string","internalType":"string"},{"name":"deadline","type":"uint256","internalType":"uint256"}],"outputs":[{"name":"dealId","type":"uint256","internalType":"uint256"}],"stateMutability":"nonpayable"},{"type":"function","name":"deals","inputs":[{"name":"","type":"uint256","internalType":"uint256"}],"outputs":[{"name":"dealId","type":"uint256","internalType":"uint256"},{"name":"serviceId","type":"uint256","internalType":"uint256"},{"name":"buyerAgentId","type":"uint256","internalType":"uint256"},{"name":"sellerAgentId","type":"uint256","internalType":"uint256"},{"name":"buyer","type":"address","internalType":"address"},{"name":"seller","type":"address","internalType":"address"},{"name":"paymentToken","type":"address","internalType":"address"},{"name":"amount","type":"uint256","internalType":"uint256"},{"name":"taskDescription","type":"string","internalType":"string"},{"name":"deliveryProof","type":"string","internalType":"string"},{"name":"status","type":"uint8","internalType":"enum NastarEscrow.DealStatus"},{"name":"createdAt","type":"uint256","internalType":"uint256"},{"name":"deadline","type":"uint256","internalType":"uint256"},{"name":"completedAt","type":"uint256","internalType":"uint256"},{"name":"disputedAt","type":"uint256","internalType":"uint256"}],"stateMutability":"view"},{"type":"function","name":"deliverDeal","inputs":[{"name":"dealId","type":"uint256","internalType":"uint256"},{"name":"proof","type":"string","internalType":"string"}],"outputs":[],"stateMutability":"nonpayable"},{"type":"function","name":"disputeDeal","inputs":[{"name":"dealId","type":"uint256","internalType":"uint256"}],"outputs":[],"stateMutability":"nonpayable"},{"type":"function","name":"getBuyerDeals","inputs":[{"name":"agentId","type":"uint256","internalType":"uint256"}],"outputs":[{"name":"","type":"uint256[]","internalType":"uint256[]"}],"stateMutability":"view"},{"type":"function","name":"getDeal","inputs":[{"name":"dealId","type":"uint256","internalType":"uint256"}],"outputs":[{"name":"","type":"tuple","internalType":"struct NastarEscrow.Deal","components":[{"name":"dealId","type":"uint256","internalType":"uint256"},{"name":"serviceId","type":"uint256","internalType":"uint256"},{"name":"buyerAgentId","type":"uint256","internalType":"uint256"},{"name":"sellerAgentId","type":"uint256","internalType":"uint256"},{"name":"buyer","type":"address","internalType":"address"},{"name":"seller","type":"address","internalType":"address"},{"name":"paymentToken","type":"address","internalType":"address"},{"name":"amount","type":"uint256","internalType":"uint256"},{"name":"taskDescription","type":"string","internalType":"string"},{"name":"deliveryProof","type":"string","internalType":"string"},{"name":"status","type":"uint8","internalType":"enum NastarEscrow.DealStatus"},{"name":"createdAt","type":"uint256","internalType":"uint256"},{"name":"deadline","type":"uint256","internalType":"uint256"},{"name":"completedAt","type":"uint256","internalType":"uint256"},{"name":"disputedAt","type":"uint256","internalType":"uint256"}]}],"stateMutability":"view"},{"type":"function","name":"getSellerDeals","inputs":[{"name":"agentId","type":"uint256","internalType":"uint256"}],"outputs":[{"name":"","type":"uint256[]","internalType":"uint256[]"}],"stateMutability":"view"},{"type":"function","name":"identityRegistry","inputs":[],"outputs":[{"name":"","type":"address","internalType":"contract IERC721"}],"stateMutability":"view"},{"type":"function","name":"nextDealId","inputs":[],"outputs":[{"name":"","type":"uint256","internalType":"uint256"}],"stateMutability":"view"},{"type":"function","name":"serviceRegistry","inputs":[],"outputs":[{"name":"","type":"address","internalType":"address"}],"stateMutability":"view"},{"type":"event","name":"DealAccepted","inputs":[{"name":"dealId","type":"uint256","indexed":true,"internalType":"uint256"},{"name":"sellerAgentId","type":"uint256","indexed":true,"internalType":"uint256"}],"anonymous":false},{"type":"event","name":"DealCompleted","inputs":[{"name":"dealId","type":"uint256","indexed":true,"internalType":"uint256"},{"name":"amount","type":"uint256","indexed":false,"internalType":"uint256"}],"anonymous":false},{"type":"event","name":"DealCreated","inputs":[{"name":"dealId","type":"uint256","indexed":true,"internalType":"uint256"},{"name":"buyerAgentId","type":"uint256","indexed":true,"internalType":"uint256"},{"name":"sellerAgentId","type":"uint256","indexed":true,"internalType":"uint256"},{"name":"serviceId","type":"uint256","indexed":false,"internalType":"uint256"},{"name":"paymentToken","type":"address","indexed":false,"internalType":"address"},{"name":"amount","type":"uint256","indexed":false,"internalType":"uint256"},{"name":"deadline","type":"uint256","indexed":false,"internalType":"uint256"}],"anonymous":false},{"type":"event","name":"DealDelivered","inputs":[{"name":"dealId","type":"uint256","indexed":true,"internalType":"uint256"},{"name":"deliveryProof","type":"string","indexed":false,"internalType":"string"}],"anonymous":false},{"type":"event","name":"DealDisputed","inputs":[{"name":"dealId","type":"uint256","indexed":true,"internalType":"uint256"},{"name":"buyerAgentId","type":"uint256","indexed":true,"internalType":"uint256"},{"name":"disputedAt","type":"uint256","indexed":false,"internalType":"uint256"}],"anonymous":false},{"type":"event","name":"DealExpired","inputs":[{"name":"dealId","type":"uint256","indexed":true,"internalType":"uint256"}],"anonymous":false},{"type":"event","name":"DealRefunded","inputs":[{"name":"dealId","type":"uint256","indexed":true,"internalType":"uint256"},{"name":"amount","type":"uint256","indexed":false,"internalType":"uint256"}],"anonymous":false},{"type":"error","name":"DeadlineTooLong","inputs":[]},{"type":"error","name":"DealExpiredError","inputs":[]},{"type":"error","name":"DisputeTimeoutNotReached","inputs":[{"name":"canRefundAt","type":"uint256","internalType":"uint256"},{"name":"now_","type":"uint256","internalType":"uint256"}]},{"type":"error","name":"InvalidStatus","inputs":[{"name":"expected","type":"uint8","internalType":"enum NastarEscrow.DealStatus"},{"name":"actual","type":"uint8","internalType":"enum NastarEscrow.DealStatus"}]},{"type":"error","name":"NotAgentOwner","inputs":[]},{"type":"error","name":"NotBuyer","inputs":[]},{"type":"error","name":"NotSeller","inputs":[]},{"type":"error","name":"SelfDeal","inputs":[]},{"type":"error","name":"TransferFailed","inputs":[]},{"type":"error","name":"ZeroAddress","inputs":[]},{"type":"error","name":"ZeroAmount","inputs":[]}],"bytecode":{"object":"0x60c034620000cc57601f620017ed38819003918201601f19168301916001600160401b03831184841017620000d0578084926040948552833981010312620000cc576200005a60206200005283620000e4565b9201620000e4565b906001600160a01b03908116908115908115620000c0575b50620000ae5760805260a0526040516116f39081620000fa8239608051818181610614015281816106bd015261126f015260a051816105080152f35b60405163d92e233d60e01b8152600490fd5b90508216155f62000072565b5f80fd5b634e487b7160e01b5f52604160045260245ffd5b51906001600160a01b0382168203620000cc5756fe60806040526004361015610011575f80fd5b5f3560e01c806303988f841461129e578063134e18f41461125a5780632de747421461121d5780633916ba38146111b5578063486265c6146111985780634d9879e31461117c5780635b7baf6414610f525780636f0e530f14610f355780637d41702e14610e8257806382fd5bac14610c3e5780638d9fe726146105af578063bf9d36fc14610537578063cbcf252a146104f3578063ce4c27ce146104b5578063d2114e0c146102a3578063fc8edb521461021f5763fd84cb97146100d4575f80fd5b3461021b5760208060031936011261021b57600435805f526001825260405f20906100fe8261167d565b60048201546001600160a01b0391908216330361020957828492600a6101a49501600360ff1982541617905542600d83015560078160058401541691600684015416920154927fd78ea1895a54fef557b21f240ae42cdf7bed32528d9d4f42f81458e17a1db48285604051868152a260405163a9059cbb60e01b81526001600160a01b0390911660048201526024810192909252909283919082905f9082906044820190565b03925af19182156101fe575f926101d1575b5050156101bf57005b6040516312171d8360e31b8152600490fd5b6101f09250803d106101f7575b6101e88183611407565b8101906115be565b5f806101b6565b503d6101de565b6040513d5f823e3d90fd5b60405163239700bf60e11b8152600490fd5b5f80fd5b3461021b57602036600319011261021b57600435805f52600160205260405f206102488161167d565b60048101546001600160a01b031633036102095780600a60029201600460ff1982541617905542600e8201550154907fd9ffa04b2f1a5f51cbd7a6f14375665b41da7e2fa73566d65b5b4f6402a47d3d6020604051428152a3005b3461021b57604036600319011261021b5767ffffffffffffffff60043560243582811161021b576102d8903690600401611590565b9092825f5260019360209185835260405f2090600a82019160ff83541660078110156104a15788810361047a575060058101546001600160a01b0316330361046857600901908511610454576103388561033283546113b2565b836115f5565b5f96601f86116001146103ce5750604093928592839261039084807fffa92937e04d994d5080499878491811e39b0c12ace952efca20f1fc61afd9129b9c5f916103c3575b508160011b915f199060031b1c19161790565b90555b600260ff198254161790558451958487958652850152848401375f828201840152601f01601f19168101030190a2005b90508501358d61037d565b601f198616825f52855f20905f5b81811061043f57509260409695928895927fffa92937e04d994d5080499878491811e39b0c12ace952efca20f1fc61afd9129a9b87809710610426575b505084811b019055610393565b8501355f19600388901b60f8161c191690558b80610419565b868b01358355998701999183019187016103dc565b634e487b7160e01b5f52604160045260245ffd5b604051635ec8235160e01b8152600490fd5b60405163f924664d60e01b8152600481018a905260449161049f906024830190611509565bfd5b634e487b7160e01b5f52602160045260245ffd5b3461021b576104c336611516565b905f52600360205260405f20805482101561021b576020916104e49161152c565b90549060031b1c604051908152f35b3461021b575f36600319011261021b576040517f00000000000000000000000000000000000000000000000000000000000000006001600160a01b03168152602090f35b3461021b5760208060031936011261021b576004355f52600360205260405f20906040519081602084549182815201935f5260205f20915f905b828210610598576105948561058881890382611407565b60405191829182611555565b0390f35b835486529485019460019384019390910190610571565b3461021b5760e036600319011261021b576064356001600160a01b038116810361021b5760a43567ffffffffffffffff811161021b576105f3903690600401611590565b6040516331a9108f60e11b81526024803560048301529193916020908290817f00000000000000000000000000000000000000000000000000000000000000006001600160a01b03165afa9081156101fe575f91610c1f575b50336001600160a01b0390911603610c0d5760443560243514610bfb5760843515610be9576001600160a01b03811615610bd75762278d004201804211610b6e5760c43511610bc5574260c4351115610bb3576040516331a9108f60e11b81526044356004820152916020836024817f00000000000000000000000000000000000000000000000000000000000000006001600160a01b03165afa9283156101fe575f93610b82575b505f54935f198514610b6e57600185015f5560405193610714856113ea565b8585526004356020860152602435604086015260443560608601523360808601526001600160a01b0390811660a0860152831660c085015260843560e085015267ffffffffffffffff8111610454576040519161077b601f8301601f191660200184611407565b818352368282011161021b57815f92602092838601378301015261010083015260405180602081011067ffffffffffffffff60208301111761045457602081016040525f81526101208301525f6101408301524261016083015260c4356101808301525f6101a08301525f6101c0830152825f52600160205260405f2090825182556020830151600183015560408301516002830155606083015160038301556004820160018060a01b03608085015116906bffffffffffffffffffffffff60a01b91828254161790556005830160018060a01b0360a08601511682825416179055600683019060018060a01b0360c0860151169082541617905560e0830151600783015561010083015180519067ffffffffffffffff8211610454576108b2826108a960088701546113b2565b600887016115f5565b602090601f8311600114610b04576108e192915f9183610a8f575b50508160011b915f199060031b1c19161790565b60088301555b61012083015180519067ffffffffffffffff8211610454576109198261091060098701546113b2565b600987016115f5565b602090601f8311600114610a9a5761094792915f9183610a8f5750508160011b915f199060031b1c19161790565b60098301555b6101408301519160078310156104a157600e6101c05f9560209560ff8019600a87015416911617600a850155610160810151600b850155610180810151600c8501556101a0810151600d85015501519101556024358352600282526109b58460408520611644565b6044358352600382526109cb8460408520611644565b604051600435815260018060a01b03821683820152608435604082015260c435606082015260443590857f6bb122e4b14a41d111379967e6fd6c18cdd1cab504eea94e1765d3bded713ce6608060243593a46040516323b872dd60e01b8152336004820152306024820152608435604482015292839160649183916001600160a01b03165af19081156101fe575f91610a70575b50156101bf57602090604051908152f35b610a89915060203d6020116101f7576101e88183611407565b82610a5f565b0151905087806108cd565b90601f19831691600986015f5260205f20925f5b818110610aec5750908460019594939210610ad4575b505050811b01600983015561094d565b01515f1960f88460031b161c19169055868080610ac4565b92936020600181928786015181550195019301610aae565b90601f19831691600886015f5260205f20925f5b818110610b565750908460019594939210610b3e575b505050811b0160088301556108e7565b01515f1960f88460031b161c19169055868080610b2e565b92936020600181928786015181550195019301610b18565b634e487b7160e01b5f52601160045260245ffd5b610ba591935060203d602011610bac575b610b9d8183611407565b8101906115d6565b91846106f5565b503d610b93565b6040516372eec39360e01b8152600490fd5b6040516354090af960e01b8152600490fd5b60405163d92e233d60e01b8152600490fd5b604051631f2a200560e01b8152600490fd5b60405163702d685960e01b8152600490fd5b604051630e41dcbf60e21b8152600490fd5b610c38915060203d602011610bac57610b9d8183611407565b8461064c565b3461021b57602036600319011261021b575f6101c0604051610c5f816113ea565b8281528260208201528260408201528260608201528260808201528260a08201528260c08201528260e082015260606101008201526060610120820152826101408201528261016082015282610180820152826101a082015201526004355f52600160205260405f2060405190610cd5826113ea565b8054825260018101546020830152600281015460408301526003810154606083015260048101546001600160a01b0390811660808401526005820154811660a084015260068201541660c0830152600781015460e0830152610d3960088201611429565b610100830152610d4b60098201611429565b61012083015260ff600a820154169060078210156104a157600e91610140840152600b810154610160840152600c810154610180840152600d8101546101a084015201546101c08201526040518091602082528051602083015260208101516040830152604081015160608301526060810151608083015260018060a01b0360808201511660a083015260018060a01b0360a08201511660c083015260018060a01b0360c08201511660e083015260e08101516101008301526101008101516101c0610e41610e296101e093846101208801526102008701906114cb565b610120850151868203601f19016101408801526114cb565b92610e56610140820151610160870190611509565b6101608101516101808601526101808101516101a08601526101a0810151828601520151908301520390f35b3461021b57602036600319011261021b57600435805f52600160205260405f20600a81019081549160ff831660078110156104a15780610f11575060058201546001600160a01b0316330361046857600c8201544211610bb357600160039360ff19161790550154907f0fc3075ed12a7c6ae22f03793f31154b739fde75f708d06516d08d57a09b0d515f80a3005b60405163f924664d60e01b81525f600482015260449161049f906024830190611509565b3461021b575f36600319011261021b57602060405162278d008152f35b3461021b5760208060031936011261021b57600435805f526001825260405f206004810160018060a01b039081815416330361020957600a830180549060ff8216915f9060078410156104a15783158061116f575b156110ba575050805460ff191660061790556001857f4877925cd1e279c5d3b475b58cf04cbb9e3b70c517a2305ac4933c34d28ca24f5f80a25b1561109657509181600761105f95938795541691600684015416920154927f0d759492754b3de794f1a978637f5e06fa6d5f61b11065953d46285d9c83f5bd85604051868152a260405163a9059cbb60e01b81526001600160a01b0390911660048201526024810192909252909283919082905f9082906044820190565b03925af19182156101fe575f92611079575050156101bf57005b61108f9250803d106101f7576101e88183611407565b81806101b6565b60405163f924664d60e01b815260048082015260449161049f906024830190611509565b6001841480611162575b15611102575050805460ff191660061790556001857f4877925cd1e279c5d3b475b58cf04cbb9e3b70c517a2305ac4933c34d28ca24f5f80a2610fe1565b909160048414611114575b5050610fe1565b909150600e8601546203f4808101809111610b6e578042106111445750600560019260ff1916179055878061110d565b60449060405190635393528b60e11b82526004820152426024820152fd5b50600c87015442116110c4565b50600c8701544211610fa7565b3461021b575f36600319011261021b5760205f54604051908152f35b3461021b575f36600319011261021b5760206040516203f4808152f35b3461021b5760208060031936011261021b576004355f52600260205260405f20906040519081602084549182815201935f5260205f20915f905b828210611206576105948561058881890382611407565b8354865294850194600193840193909101906111ef565b3461021b5761122b36611516565b905f52600260205260405f20805482101561021b5760209161124c9161152c565b90546040519160031b1c8152f35b3461021b575f36600319011261021b576040517f00000000000000000000000000000000000000000000000000000000000000006001600160a01b03168152602090f35b3461021b57602036600319011261021b576004355f52600160205260405f20805490600181015491600282015491600381015490600160a01b6001900380600483015416908060058401541690600684015416946007840154906008850161130590611429565b9061131260098701611429565b92600a87015460ff1698600b88015495600c89015497600d8a015499600e01549a6040519e8f9e8f916101e0988352602083015260408201526060015260808d015260a08c015260c08b015260e08a0152806101008a01528801611375916114cb565b878103610120890152611387916114cb565b94610140870161139691611509565b6101608601526101808501526101a08401526101c08301520390f35b90600182811c921680156113e0575b60208310146113cc57565b634e487b7160e01b5f52602260045260245ffd5b91607f16916113c1565b6101e0810190811067ffffffffffffffff82111761045457604052565b90601f8019910116810190811067ffffffffffffffff82111761045457604052565b9060405191825f825461143b816113b2565b908184526020946001916001811690815f146114a9575060011461146b575b50505061146992500383611407565b565b5f90815285812095935091905b81831061149157505061146993508201015f808061145a565b85548884018501529485019487945091830191611478565b9250505061146994925060ff191682840152151560051b8201015f808061145a565b91908251928382525f5b8481106114f5575050825f602080949584010152601f8019910116010190565b6020818301810151848301820152016114d5565b9060078210156104a15752565b604090600319011261021b576004359060243590565b8054821015611541575f5260205f2001905f90565b634e487b7160e01b5f52603260045260245ffd5b60209060206040818301928281528551809452019301915f5b82811061157c575050505090565b83518552938101939281019260010161156e565b9181601f8401121561021b5782359167ffffffffffffffff831161021b576020838186019501011161021b57565b9081602091031261021b5751801515810361021b5790565b9081602091031261021b57516001600160a01b038116810361021b5790565b601f821161160257505050565b5f5260205f20906020601f840160051c8301931061163a575b601f0160051c01905b81811061162f575050565b5f8155600101611624565b909150819061161b565b805468010000000000000000811015610454576116669160018201815561152c565b819291549060031b91821b915f19901b1916179055565b600a015460ff1660078110156104a157600281036116985750565b60405163f924664d60e01b81526002600482015260449161049f90602483019061150956fea26469706673582212205fd5e662c156a51fe56681de78f7fec9ae3e75a977277c553b18fe8640ab3c9264736f6c63430008170033","linkReferences":{}},"methodIdentifiers":{"DISPUTE_TIMEOUT()":"486265c6","MAX_DEADLINE()":"6f0e530f","acceptDeal(uint256)":"7d41702e","agentDealsAsBuyer(uint256,uint256)":"2de74742","agentDealsAsSeller(uint256,uint256)":"ce4c27ce","claimRefund(uint256)":"5b7baf64","confirmDelivery(uint256)":"fd84cb97","createDeal(uint256,uint256,uint256,address,uint256,string,uint256)":"8d9fe726","deals(uint256)":"03988f84","deliverDeal(uint256,string)":"d2114e0c","disputeDeal(uint256)":"fc8edb52","getBuyerDeals(uint256)":"3916ba38","getDeal(uint256)":"82fd5bac","getSellerDeals(uint256)":"bf9d36fc","identityRegistry()":"134e18f4","nextDealId()":"4d9879e3","serviceRegistry()":"cbcf252a"},"id":22}