{"abi":[{"type":"constructor","inputs":[{"name":"_identityRegistry","type":"address","internalType":"address"},{"name":"_serviceRegistry","type":"address","internalType":"address"}],"stateMutability":"nonpayable"},{"type":"function","name":"DISPUTE_TIMEOUT","inputs":[],"outputs":[{"name":"","type":"uint256","internalType":"uint256"}],"stateMutability":"view"},{"type":"function","name":"MAX_DEADLINE","inputs":[],"outputs":[{"name":"","type":"uint256","internalType":"uint256"}],"stateMutability":"view"},{"type":"function","name":"acceptDeal","inputs":[{"name":"dealId","type":"uint256","internalType":"uint256"}],"outputs":[],"stateMutability":"nonpayable"},{"type":"function","name":"agentDealsAsBuyer","inputs":[{"name":"","type":"uint256","internalType":"uint256"},{"name":"","type":"uint256","internalType":"uint256"}],"outputs":[{"name":"","type":"uint256","internalType":"uint256"}],"stateMutability":"view"},{"type":"function","name":"agentDealsAsSeller","inputs":[{"name":"","type":"uint256","internalType":"uint256"},{"name":"","type":"uint256","internalType":"uint256"}],"outputs":[{"name":"","type":"uint256","internalType":"uint256"}],"stateMutability":"view"},{"type":"function","name":"claimRefund","inputs":[{"name":"dealId","type":"uint256","internalType":"uint256"}],"outputs":[],"stateMutability":"nonpayable"},{"type":"function","name":"confirmDelivery","inputs":[{"name":"dealId","type":"uint256","internalType":"uint256"}],"outputs":[],"stateMutability":"nonpayable"},{"type":"function","name":"createDeal","inputs":[{"name":"serviceId","type":"uint256","internalType":"uint256"},{"name":"buyerAgentId","type":"uint256","internalType":"uint256"},{"name":"sellerAgentId","type":"uint256","internalType":"uint256"},{"name":"paymentToken","type":"address","internalType":"address"},{"name":"amount","type":"uint256","internalType":"uint256"},{"name":"taskDescription","type":"string","internalType":"string"},{"name":"deadline","type":"uint256","internalType":"uint256"}],"outputs":[{"name":"dealId","type":"uint256","internalType":"uint256"}],"stateMutability":"nonpayable"},{"type":"function","name":"deals","inputs":[{"name":"","type":"uint256","internalType":"uint256"}],"outputs":[{"name":"dealId","type":"uint256","internalType":"uint256"},{"name":"serviceId","type":"uint256","internalType":"uint256"},{"name":"buyerAgentId","type":"uint256","internalType":"uint256"},{"name":"sellerAgentId","type":"uint256","internalType":"uint256"},{"name":"buyer","type":"address","internalType":"address"},{"name":"seller","type":"address","internalType":"address"},{"name":"paymentToken","type":"address","internalType":"address"},{"name":"amount","type":"uint256","internalType":"uint256"},{"name":"taskDescription","type":"string","internalType":"string"},{"name":"deliveryProof","type":"string","internalType":"string"},{"name":"status","type":"uint8","internalType":"enum NastarEscrow.DealStatus"},{"name":"createdAt","type":"uint256","internalType":"uint256"},{"name":"deadline","type":"uint256","internalType":"uint256"},{"name":"completedAt","type":"uint256","internalType":"uint256"}],"stateMutability":"view"},{"type":"function","name":"deliverDeal","inputs":[{"name":"dealId","type":"uint256","internalType":"uint256"},{"name":"proof","type":"string","internalType":"string"}],"outputs":[],"stateMutability":"nonpayable"},{"type":"function","name":"disputeDeal","inputs":[{"name":"dealId","type":"uint256","internalType":"uint256"}],"outputs":[],"stateMutability":"nonpayable"},{"type":"function","name":"getBuyerDeals","inputs":[{"name":"agentId","type":"uint256","internalType":"uint256"}],"outputs":[{"name":"","type":"uint256[]","internalType":"uint256[]"}],"stateMutability":"view"},{"type":"function","name":"getDeal","inputs":[{"name":"dealId","type":"uint256","internalType":"uint256"}],"outputs":[{"name":"","type":"tuple","internalType":"struct NastarEscrow.Deal","components":[{"name":"dealId","type":"uint256","internalType":"uint256"},{"name":"serviceId","type":"uint256","internalType":"uint256"},{"name":"buyerAgentId","type":"uint256","internalType":"uint256"},{"name":"sellerAgentId","type":"uint256","internalType":"uint256"},{"name":"buyer","type":"address","internalType":"address"},{"name":"seller","type":"address","internalType":"address"},{"name":"paymentToken","type":"address","internalType":"address"},{"name":"amount","type":"uint256","internalType":"uint256"},{"name":"taskDescription","type":"string","internalType":"string"},{"name":"deliveryProof","type":"string","internalType":"string"},{"name":"status","type":"uint8","internalType":"enum NastarEscrow.DealStatus"},{"name":"createdAt","type":"uint256","internalType":"uint256"},{"name":"deadline","type":"uint256","internalType":"uint256"},{"name":"completedAt","type":"uint256","internalType":"uint256"}]}],"stateMutability":"view"},{"type":"function","name":"getSellerDeals","inputs":[{"name":"agentId","type":"uint256","internalType":"uint256"}],"outputs":[{"name":"","type":"uint256[]","internalType":"uint256[]"}],"stateMutability":"view"},{"type":"function","name":"identityRegistry","inputs":[],"outputs":[{"name":"","type":"address","internalType":"contract IERC721"}],"stateMutability":"view"},{"type":"function","name":"nextDealId","inputs":[],"outputs":[{"name":"","type":"uint256","internalType":"uint256"}],"stateMutability":"view"},{"type":"function","name":"serviceRegistry","inputs":[],"outputs":[{"name":"","type":"address","internalType":"address"}],"stateMutability":"view"},{"type":"event","name":"DealAccepted","inputs":[{"name":"dealId","type":"uint256","indexed":true,"internalType":"uint256"},{"name":"sellerAgentId","type":"uint256","indexed":true,"internalType":"uint256"}],"anonymous":false},{"type":"event","name":"DealCompleted","inputs":[{"name":"dealId","type":"uint256","indexed":true,"internalType":"uint256"},{"name":"amount","type":"uint256","indexed":false,"internalType":"uint256"}],"anonymous":false},{"type":"event","name":"DealCreated","inputs":[{"name":"dealId","type":"uint256","indexed":true,"internalType":"uint256"},{"name":"buyerAgentId","type":"uint256","indexed":true,"internalType":"uint256"},{"name":"sellerAgentId","type":"uint256","indexed":true,"internalType":"uint256"},{"name":"serviceId","type":"uint256","indexed":false,"internalType":"uint256"},{"name":"paymentToken","type":"address","indexed":false,"internalType":"address"},{"name":"amount","type":"uint256","indexed":false,"internalType":"uint256"},{"name":"deadline","type":"uint256","indexed":false,"internalType":"uint256"}],"anonymous":false},{"type":"event","name":"DealDelivered","inputs":[{"name":"dealId","type":"uint256","indexed":true,"internalType":"uint256"},{"name":"deliveryProof","type":"string","indexed":false,"internalType":"string"}],"anonymous":false},{"type":"event","name":"DealDisputed","inputs":[{"name":"dealId","type":"uint256","indexed":true,"internalType":"uint256"},{"name":"buyerAgentId","type":"uint256","indexed":true,"internalType":"uint256"}],"anonymous":false},{"type":"event","name":"DealExpired","inputs":[{"name":"dealId","type":"uint256","indexed":true,"internalType":"uint256"}],"anonymous":false},{"type":"event","name":"DealRefunded","inputs":[{"name":"dealId","type":"uint256","indexed":true,"internalType":"uint256"},{"name":"amount","type":"uint256","indexed":false,"internalType":"uint256"}],"anonymous":false},{"type":"error","name":"DeadlineTooLong","inputs":[]},{"type":"error","name":"DealExpiredError","inputs":[]},{"type":"error","name":"DealNotFound","inputs":[]},{"type":"error","name":"DisputeTimeoutNotReached","inputs":[]},{"type":"error","name":"InvalidStatus","inputs":[{"name":"expected","type":"uint8","internalType":"enum NastarEscrow.DealStatus"},{"name":"actual","type":"uint8","internalType":"enum NastarEscrow.DealStatus"}]},{"type":"error","name":"NotAgentOwner","inputs":[]},{"type":"error","name":"NotBuyer","inputs":[]},{"type":"error","name":"NotSeller","inputs":[]},{"type":"error","name":"TransferFailed","inputs":[]},{"type":"error","name":"ZeroAmount","inputs":[]}],"bytecode":{"object":"0x60c03461009257601f6116c938819003918201601f19168301916001600160401b0383118484101761009657808492604094855283398101031261009257610052602061004b836100aa565b92016100aa565b6001600160a01b0390911660805260a05260405161160a90816100bf82396080518181816105f8015281816106e00152611193015260a051816104ec0152f35b5f80fd5b634e487b7160e01b5f52604160045260245ffd5b51906001600160a01b03821682036100925756fe60806040526004361015610011575f80fd5b5f3560e01c806303988f84146111c2578063134e18f41461117e5780632de74742146111415780633916ba38146110d9578063486265c6146110bc5780634d9879e3146110a05780635b7baf6414610ec15780636f0e530f14610ea45780637d41702e14610df157806382fd5bac14610bcb5780638d9fe72614610593578063bf9d36fc1461051b578063cbcf252a146104d7578063ce4c27ce14610499578063d2114e0c14610287578063fc8edb52146102105763fd84cb97146100d4575f80fd5b3461020c5760208060031936011261020c5760043590815f526001815260405f20906100ff82611594565b60048201546001600160a01b039290831633036101fa57600a81018054600360ff1990911617905542600d820155600681015460058201546007909201805460405163a9059cbb60e01b81529386166001600160a01b031660048501526024840152938391839160449183915f91165af19081156101ef575f916101c2575b50156101b0577fd78ea1895a54fef557b21f240ae42cdf7bed32528d9d4f42f81458e17a1db4829154604051908152a2005b6040516312171d8360e31b8152600490fd5b6101e29150823d84116101e8575b6101da818361131e565b8101906114d5565b5f61017e565b503d6101d0565b6040513d5f823e3d90fd5b60405163239700bf60e11b8152600490fd5b5f80fd5b3461020c57602036600319011261020c57600435805f52600160205260405f2061023981611594565b60048101546001600160a01b031633036101fa57600a8101805460ff1916600417905560020154907fed121d915a584d0eb8186a08e363066027e3639c39e1f2f1c39bdc5cee0b78745f80a3005b3461020c57604036600319011261020c5767ffffffffffffffff60043560243582811161020c576102bc9036906004016114a7565b9092825f5260019360209185835260405f2090600a82019160ff83541660078110156104855788810361045e575060058101546001600160a01b0316330361044c576009019085116104385761031c8561031683546112c9565b8361150c565b5f96601f86116001146103b25750604093928592839261037484807fffa92937e04d994d5080499878491811e39b0c12ace952efca20f1fc61afd9129b9c5f916103a7575b508160011b915f199060031b1c19161790565b90555b600260ff198254161790558451958487958652850152848401375f828201840152601f01601f19168101030190a2005b90508501358d610361565b601f198616825f52855f20905f5b81811061042357509260409695928895927fffa92937e04d994d5080499878491811e39b0c12ace952efca20f1fc61afd9129a9b8780971061040a575b505084811b019055610377565b8501355f19600388901b60f8161c191690558b806103fd565b868b01358355998701999183019187016103c0565b634e487b7160e01b5f52604160045260245ffd5b604051635ec8235160e01b8152600490fd5b60405163f924664d60e01b8152600481018a9052604491610483906024830190611420565bfd5b634e487b7160e01b5f52602160045260245ffd5b3461020c576104a73661142d565b905f52600360205260405f20805482101561020c576020916104c891611443565b90549060031b1c604051908152f35b3461020c575f36600319011261020c576040517f00000000000000000000000000000000000000000000000000000000000000006001600160a01b03168152602090f35b3461020c5760208060031936011261020c576004355f52600360205260405f20906040519081602084549182815201935f5260205f20915f905b82821061057c576105788561056c8189038261131e565b6040519182918261146c565b0390f35b835486529485019460019384019390910190610555565b3461020c5760e036600319011261020c576064356001600160a01b038116810361020c5760a43567ffffffffffffffff811161020c576105d79036906004016114a7565b6040516331a9108f60e11b81526024803560048301529193916020908290817f00000000000000000000000000000000000000000000000000000000000000006001600160a01b03165afa9081156101ef575f91610bac575b50336001600160a01b0390911603610b9a5760843515610b885762278d004201804211610b315760c43511610b76574260c4351115610b64576040516323b872dd60e01b815233600482015230602482015260843560448201526020816064815f6001600160a01b0387165af19081156101ef575f91610b45575b50156101b0575f54915f198314610b3157600183015f556040516331a9108f60e11b81526044356004820152936020856024817f00000000000000000000000000000000000000000000000000000000000000006001600160a01b03165afa9485156101ef575f95610b00575b506040519461072686611301565b8486526004356020870152602435604087015260443560608701523360808701526001600160a01b0390811660a0870152831660c086015260843560e086015267ffffffffffffffff8111610438576040519161078d601f8301601f19166020018461131e565b818352368282011161020c57815f92602092838601378301015261010084015260405180602081011067ffffffffffffffff60208301111761043857602081016040525f81526101208401525f6101408401524261016084015260c4356101808401525f6101a0840152815f52600160205260405f20835181556020840151600182015560408401516002820155606084015160038201556004810160018060a01b03608086015116906bffffffffffffffffffffffff60a01b91828254161790556005820160018060a01b0360a08701511682825416179055600682019060018060a01b0360c0870151169082541617905560e0840151600782015561010084015180519067ffffffffffffffff8211610438576108bc826108b360088601546112c9565b6008860161150c565b602090601f8311600114610a96576108eb92915f9183610a21575b50508160011b915f199060031b1c19161790565b60088201555b61012084015180519067ffffffffffffffff8211610438576109238261091a60098601546112c9565b6009860161150c565b602090601f8311600114610a2c5761095192915f9183610a215750508160011b915f199060031b1c19161790565b60098201555b600a8101610140850151600781101561048557602095600d926101a09260ff80198354169116179055610160810151600b850155610180810151600c85015501519101556024355f52600283526109b18260405f2061155b565b6044355f52600383526109c78260405f2061155b565b60405190600435825260018060a01b031683820152608435604082015260c435606082015260443590827f6bb122e4b14a41d111379967e6fd6c18cdd1cab504eea94e1765d3bded713ce6608060243593a4604051908152f35b0151905087806108d7565b90601f19831691600985015f5260205f20925f5b818110610a7e5750908460019594939210610a66575b505050811b016009820155610957565b01515f1960f88460031b161c19169055868080610a56565b92936020600181928786015181550195019301610a40565b90601f19831691600885015f5260205f20925f5b818110610ae85750908460019594939210610ad0575b505050811b0160088201556108f1565b01515f1960f88460031b161c19169055868080610ac0565b92936020600181928786015181550195019301610aaa565b610b2391955060203d602011610b2a575b610b1b818361131e565b8101906114ed565b9385610718565b503d610b11565b634e487b7160e01b5f52601160045260245ffd5b610b5e915060203d6020116101e8576101da818361131e565b846106ab565b6040516372eec39360e01b8152600490fd5b6040516354090af960e01b8152600490fd5b604051631f2a200560e01b8152600490fd5b604051630e41dcbf60e21b8152600490fd5b610bc5915060203d602011610b2a57610b1b818361131e565b84610630565b3461020c57602036600319011261020c575f6101a0604051610bec81611301565b8281528260208201528260408201528260608201528260808201528260a08201528260c08201528260e08201526060610100820152606061012082015282610140820152826101608201528261018082015201526004355f52600160205260405f2060405190610c5b82611301565b8054825260018101546020830152600281015460408301526003810154606083015260048101546001600160a01b0390811660808401526005820154811660a084015260068201541660c0830152600781015460e0830152610cbf60088201611340565b610100830152610cd160098201611340565b61012083015260ff600a8201541690600782101561048557600d91610140840152600b810154610160840152600c81015461018084015201546101a08201526040518091602082528051602083015260208101516040830152604081015160608301526060810151608083015260018060a01b0360808201511660a083015260018060a01b0360a08201511660c083015260018060a01b0360c08201511660e083015260e08101516101008301526101008101516101a0610dbc610da46101c093846101208801526101e08701906113e2565b610120850151868203601f19016101408801526113e2565b92610dd1610140820151610160870190611420565b610160810151610180860152610180810151828601520151908301520390f35b3461020c57602036600319011261020c57600435805f52600160205260405f20600a81019081549160ff831660078110156104855780610e80575060058201546001600160a01b0316330361044c57600c8201544211610b6457600160039360ff19161790550154907f0fc3075ed12a7c6ae22f03793f31154b739fde75f708d06516d08d57a09b0d515f80a3005b60405163f924664d60e01b81525f6004820152604491610483906024830190611420565b3461020c575f36600319011261020c57602060405162278d008152f35b3461020c5760208060031936011261020c5760043590815f526001815260405f2090600482019160018060a01b038084541633036101fa575f600a830190815460ff8116600781101561048557801580611093575b1561101e575050815460ff19166006178255506001867f4877925cd1e279c5d3b475b58cf04cbb9e3b70c517a2305ac4933c34d28ca24f5f80a25b15610ff65750600682015493546007909201805460405163a9059cbb60e01b81529383166001600160a01b031660048501526024840152938391839116815f816044810103925af19081156101ef575f91610fd9575b50156101b0577f0d759492754b3de794f1a978637f5e06fa6d5f61b11065953d46285d9c83f5bd9154604051908152a2005b610ff09150823d84116101e8576101da818361131e565b84610fa7565b5460405163f924664d60e01b815260048082015260449161048390602483019060ff16611420565b6004810361103b575050815460ff19166005178255506001610f51565b60011480611086575b61104f575b50610f51565b60ff19166006178255506001867f4877925cd1e279c5d3b475b58cf04cbb9e3b70c517a2305ac4933c34d28ca24f5f80a287611049565b50600c8501544211611044565b50600c8601544211610f16565b3461020c575f36600319011261020c5760205f54604051908152f35b3461020c575f36600319011261020c5760206040516203f4808152f35b3461020c5760208060031936011261020c576004355f52600260205260405f20906040519081602084549182815201935f5260205f20915f905b82821061112a576105788561056c8189038261131e565b835486529485019460019384019390910190611113565b3461020c5761114f3661142d565b905f52600260205260405f20805482101561020c5760209161117091611443565b90546040519160031b1c8152f35b3461020c575f36600319011261020c576040517f00000000000000000000000000000000000000000000000000000000000000006001600160a01b03168152602090f35b3461020c57602036600319011261020c576004355f52600160205260405f208054600182015490600283015492600381015490600160a01b600190039283600483015416908460058401541694600684015416906007840154906008850161122990611340565b9161123660098701611340565b93600a87015460ff1698600b88015496600c89015498600d0154996040519d8e809e6101c098825260208201526040015260608d015260808c015260a08b015260c08a015260e0890152806101008901528701611292916113e2565b8681036101208801526112a4916113e2565b9361014086016112b391611420565b6101608501526101808401526101a08301520390f35b90600182811c921680156112f7575b60208310146112e357565b634e487b7160e01b5f52602260045260245ffd5b91607f16916112d8565b6101c0810190811067ffffffffffffffff82111761043857604052565b90601f8019910116810190811067ffffffffffffffff82111761043857604052565b9060405191825f8254611352816112c9565b908184526020946001916001811690815f146113c05750600114611382575b5050506113809250038361131e565b565b5f90815285812095935091905b8183106113a857505061138093508201015f8080611371565b8554888401850152948501948794509183019161138f565b9250505061138094925060ff191682840152151560051b8201015f8080611371565b91908251928382525f5b84811061140c575050825f602080949584010152601f8019910116010190565b6020818301810151848301820152016113ec565b9060078210156104855752565b604090600319011261020c576004359060243590565b8054821015611458575f5260205f2001905f90565b634e487b7160e01b5f52603260045260245ffd5b60209060206040818301928281528551809452019301915f5b828110611493575050505090565b835185529381019392810192600101611485565b9181601f8401121561020c5782359167ffffffffffffffff831161020c576020838186019501011161020c57565b9081602091031261020c5751801515810361020c5790565b9081602091031261020c57516001600160a01b038116810361020c5790565b601f821161151957505050565b5f5260205f20906020601f840160051c83019310611551575b601f0160051c01905b818110611546575050565b5f815560010161153b565b9091508190611532565b8054680100000000000000008110156104385761157d91600182018155611443565b819291549060031b91821b915f19901b1916179055565b600a015460ff16600781101561048557600281036115af5750565b60405163f924664d60e01b81526002600482015260449161048390602483019061142056fea26469706673582212201b4d5a475ba2c51ae50c9950193ad750e72f32cd4da9a60455cc30da5a391c6f64736f6c63430008170033","linkReferences":{}},"methodIdentifiers":{"DISPUTE_TIMEOUT()":"486265c6","MAX_DEADLINE()":"6f0e530f","acceptDeal(uint256)":"7d41702e","agentDealsAsBuyer(uint256,uint256)":"2de74742","agentDealsAsSeller(uint256,uint256)":"ce4c27ce","claimRefund(uint256)":"5b7baf64","confirmDelivery(uint256)":"fd84cb97","createDeal(uint256,uint256,uint256,address,uint256,string,uint256)":"8d9fe726","deals(uint256)":"03988f84","deliverDeal(uint256,string)":"d2114e0c","disputeDeal(uint256)":"fc8edb52","getBuyerDeals(uint256)":"3916ba38","getDeal(uint256)":"82fd5bac","getSellerDeals(uint256)":"bf9d36fc","identityRegistry()":"134e18f4","nextDealId()":"4d9879e3","serviceRegistry()":"cbcf252a"},"id":22}