{"abi":[{"type":"constructor","inputs":[{"name":"_identityRegistry","type":"address","internalType":"address"}],"stateMutability":"nonpayable"},{"type":"function","name":"agentServices","inputs":[{"name":"","type":"uint256","internalType":"uint256"},{"name":"","type":"uint256","internalType":"uint256"}],"outputs":[{"name":"","type":"uint256","internalType":"uint256"}],"stateMutability":"view"},{"type":"function","name":"deactivateService","inputs":[{"name":"serviceId","type":"uint256","internalType":"uint256"}],"outputs":[],"stateMutability":"nonpayable"},{"type":"function","name":"getActiveServices","inputs":[{"name":"offset","type":"uint256","internalType":"uint256"},{"name":"limit","type":"uint256","internalType":"uint256"}],"outputs":[{"name":"result","type":"tuple[]","internalType":"struct ServiceRegistry.Service[]","components":[{"name":"agentId","type":"uint256","internalType":"uint256"},{"name":"provider","type":"address","internalType":"address"},{"name":"name","type":"string","internalType":"string"},{"name":"description","type":"string","internalType":"string"},{"name":"endpoint","type":"string","internalType":"string"},{"name":"paymentToken","type":"address","internalType":"address"},{"name":"pricePerCall","type":"uint256","internalType":"uint256"},{"name":"active","type":"bool","internalType":"bool"},{"name":"createdAt","type":"uint256","internalType":"uint256"},{"name":"updatedAt","type":"uint256","internalType":"uint256"}]},{"name":"count","type":"uint256","internalType":"uint256"}],"stateMutability":"view"},{"type":"function","name":"getAgentServices","inputs":[{"name":"agentId","type":"uint256","internalType":"uint256"}],"outputs":[{"name":"","type":"uint256[]","internalType":"uint256[]"}],"stateMutability":"view"},{"type":"function","name":"getService","inputs":[{"name":"serviceId","type":"uint256","internalType":"uint256"}],"outputs":[{"name":"","type":"tuple","internalType":"struct ServiceRegistry.Service","components":[{"name":"agentId","type":"uint256","internalType":"uint256"},{"name":"provider","type":"address","internalType":"address"},{"name":"name","type":"string","internalType":"string"},{"name":"description","type":"string","internalType":"string"},{"name":"endpoint","type":"string","internalType":"string"},{"name":"paymentToken","type":"address","internalType":"address"},{"name":"pricePerCall","type":"uint256","internalType":"uint256"},{"name":"active","type":"bool","internalType":"bool"},{"name":"createdAt","type":"uint256","internalType":"uint256"},{"name":"updatedAt","type":"uint256","internalType":"uint256"}]}],"stateMutability":"view"},{"type":"function","name":"getServicesByTag","inputs":[{"name":"tag","type":"bytes32","internalType":"bytes32"}],"outputs":[{"name":"","type":"uint256[]","internalType":"uint256[]"}],"stateMutability":"view"},{"type":"function","name":"identityRegistry","inputs":[],"outputs":[{"name":"","type":"address","internalType":"contract IERC721"}],"stateMutability":"view"},{"type":"function","name":"nextServiceId","inputs":[],"outputs":[{"name":"","type":"uint256","internalType":"uint256"}],"stateMutability":"view"},{"type":"function","name":"registerService","inputs":[{"name":"agentId","type":"uint256","internalType":"uint256"},{"name":"name","type":"string","internalType":"string"},{"name":"description","type":"string","internalType":"string"},{"name":"endpoint","type":"string","internalType":"string"},{"name":"paymentToken","type":"address","internalType":"address"},{"name":"pricePerCall","type":"uint256","internalType":"uint256"},{"name":"tags","type":"bytes32[]","internalType":"bytes32[]"}],"outputs":[{"name":"serviceId","type":"uint256","internalType":"uint256"}],"stateMutability":"nonpayable"},{"type":"function","name":"services","inputs":[{"name":"","type":"uint256","internalType":"uint256"}],"outputs":[{"name":"agentId","type":"uint256","internalType":"uint256"},{"name":"provider","type":"address","internalType":"address"},{"name":"name","type":"string","internalType":"string"},{"name":"description","type":"string","internalType":"string"},{"name":"endpoint","type":"string","internalType":"string"},{"name":"paymentToken","type":"address","internalType":"address"},{"name":"pricePerCall","type":"uint256","internalType":"uint256"},{"name":"active","type":"bool","internalType":"bool"},{"name":"createdAt","type":"uint256","internalType":"uint256"},{"name":"updatedAt","type":"uint256","internalType":"uint256"}],"stateMutability":"view"},{"type":"function","name":"servicesByTag","inputs":[{"name":"","type":"bytes32","internalType":"bytes32"},{"name":"","type":"uint256","internalType":"uint256"}],"outputs":[{"name":"","type":"uint256","internalType":"uint256"}],"stateMutability":"view"},{"type":"function","name":"updateService","inputs":[{"name":"serviceId","type":"uint256","internalType":"uint256"},{"name":"name","type":"string","internalType":"string"},{"name":"description","type":"string","internalType":"string"},{"name":"endpoint","type":"string","internalType":"string"},{"name":"paymentToken","type":"address","internalType":"address"},{"name":"pricePerCall","type":"uint256","internalType":"uint256"},{"name":"active","type":"bool","internalType":"bool"}],"outputs":[],"stateMutability":"nonpayable"},{"type":"event","name":"ServiceDeactivated","inputs":[{"name":"serviceId","type":"uint256","indexed":true,"internalType":"uint256"}],"anonymous":false},{"type":"event","name":"ServiceRegistered","inputs":[{"name":"serviceId","type":"uint256","indexed":true,"internalType":"uint256"},{"name":"agentId","type":"uint256","indexed":true,"internalType":"uint256"},{"name":"provider","type":"address","indexed":true,"internalType":"address"},{"name":"name","type":"string","indexed":false,"internalType":"string"},{"name":"pricePerCall","type":"uint256","indexed":false,"internalType":"uint256"}],"anonymous":false},{"type":"event","name":"ServiceTagged","inputs":[{"name":"serviceId","type":"uint256","indexed":true,"internalType":"uint256"},{"name":"tag","type":"bytes32","indexed":true,"internalType":"bytes32"}],"anonymous":false},{"type":"event","name":"ServiceUpdated","inputs":[{"name":"serviceId","type":"uint256","indexed":true,"internalType":"uint256"},{"name":"name","type":"string","indexed":false,"internalType":"string"},{"name":"pricePerCall","type":"uint256","indexed":false,"internalType":"uint256"},{"name":"active","type":"bool","indexed":false,"internalType":"bool"}],"anonymous":false},{"type":"error","name":"EmptyName","inputs":[]},{"type":"error","name":"NotAgentOwner","inputs":[]},{"type":"error","name":"NotServiceProvider","inputs":[]},{"type":"error","name":"ServiceNotFound","inputs":[]}],"bytecode":{"object":"0x60a03461007357601f61166138819003918201601f19168301916001600160401b038311848410176100775780849260209460405283398101031261007357516001600160a01b03811690819003610073576080526040516115d5908161008c82396080518181816108e20152610eb80152f35b5f80fd5b634e487b7160e01b5f52604160045260245ffdfe6080806040526004361015610012575f80fd5b5f3560e01c9081630530984914610ee757508063134e18f414610ea35780633c3f8c6414610e5d5780636696ff2614610e205780636effd6e414610806578063b5816999146103f1578063bf00fae314610372578063c22c4f4314610294578063ec9c321214610209578063ef0e239b14610138578063f6c53d9b1461011c5763fdea812f146100a0575f80fd5b3461011857602080600319360112610118576004355f52600360205260405f20906040519081602084549182815201935f5260205f20915f905b828210610101576100fd856100f181890382611134565b60405191829182610f4c565b0390f35b8354865294850194600193840193909101906100da565b5f80fd5b34610118575f3660031901126101185760205f54604051908152f35b346101185760203660031901126101185761015161132d565b506004355f5260016020526100fd60405f2060096040519161017283611118565b8054835260018101546001600160a01b03908116602085015261019760028301611155565b60408501526101a860038301611155565b60608501526101b960048301611155565b608085015260058201541660a0840152600681015460c084015260ff600782015416151560e084015260088101546101008401520154610120820152604051918291602083526020830190611047565b34610118576020366003190112610118576004355f81815260016020819052604090912001546001600160a01b0316330361028257805f52600160205260405f206007810160ff1981541690556009429101557fd03940fb17cb0a1a204f69aebcdc5eb179c0d0c61f1d1a75872054468d7aa6655f80a2005b604051633c32397160e21b8152600490fd5b34610118576020366003190112610118576004355f52600160205260405f20604081549160018060a01b039081600182015416906102d460028201611155565b6102e060038301611155565b6103506102ef60048501611155565b956005850154169561034260068601549361033460ff60078901541696600960088a0154990154998c519d8e9d8e6101409384938252602082015201528c0190611009565b908a820360608c0152611009565b9088820360808a0152611009565b9460a087015260c0860152151560e08501526101008401526101208301520390f35b346101185761038961038336610fb0565b9061138d565b906040519060408201926040835281518094526060830160608560051b850101926020809101915f905b8782106103c7578680878760208301520390f35b9091929483806103e3600193605f198b82030186528951611047565b9701920192019092916103b3565b346101185760e0366003190112610118576004356024356001600160401b03811161011857610424903690600401610fc6565b91906044356001600160401b03811161011857610445903690600401610fc6565b93906064356001600160401b03811161011857610466903690600401610fc6565b9590610470610ff3565b9160c435151560c43503610118575f87815260016020819052604090912001546001600160a01b031633036102825784156107f457865f52600160205260405f20936001600160401b0386116106f4576104da866104d160028801546110e0565b6002880161125e565b5f86601f811160011461078b5780610506925f91610780575b508160011b915f199060031b1c19161790565b60028601555b6001600160401b0382116106f4576105348261052b60038801546110e0565b6003880161125e565b5f90601f83116001146107135761056292915f9183610708575b50508160011b915f199060031b1c19161790565b60038401555b6001600160401b0387116106f4576105908761058760048601546110e0565b6004860161125e565b5f90601f88116001146106665796806105e0927f44854e574bb78f46d4a0921e7f2d2e859684fb53c31fea549916ca23394e025998995f9261065b5750508160011b915f199060031b1c19161790565b60048301555b6005820180546001600160a01b0319166001600160a01b0390921691909117905560a435600682015560078101805460c435151560ff1660ff19919091161790556009429101556106446040519283926060845260608401916112f6565b60a435602083015260c435151560408301520390a2005b01359050898061054e565b600484015f5260205f20915f5b601f198a1681106106dc57509188916001937f44854e574bb78f46d4a0921e7f2d2e859684fb53c31fea549916ca23394e0259999a601f198116106106c3575b505050811b0160048301556105e6565b01355f19600384901b60f8161c191690558880806106b3565b90926020600181928686013581550194019101610673565b634e487b7160e01b5f52604160045260245ffd5b013590508a8061054e565b600386939293015f5260205f20905f935b601f1984168510610768576001945083601f1981161061074f575b505050811b016003840155610568565b01355f19600384901b60f8161c1916905589808061073f565b81810135835560209485019460019093019201610724565b90508901358c6104f3565b50600286015f5260205f20905f5b601f19891681106107dc575087601f198116106107c3575b5050600186811b01600286015561050c565b8801355f19600389901b60f8161c1916905589806107b1565b9091602060018192858d013581550193019101610799565b604051632ef1310560e01b8152600490fd5b346101185760e0366003190112610118576024356001600160401b03811161011857610836903690600401610fc6565b6044356001600160401b03811161011857610855903690600401610fc6565b6064929192356001600160401b03811161011857610877903690600401610fc6565b610882929192610ff3565b9060c435936001600160401b0385116101185736602386011215610118576001600160401b0385600401351161011857366024866004013560051b87010111610118576040516331a9108f60e11b815260048035908201526020816024817f00000000000000000000000000000000000000000000000000000000000000006001600160a01b03165afa908115610e15575f91610dd3575b50336001600160a01b0390911603610dc15785156107f457610982916109765f54986109458a6111f7565b5f556040519661095488611118565b600435885233602089015261096a368b8e611219565b60408901523691611219565b60608601523691611219565b608083015260018060a01b031660a082015260a43560c0820152600160e08201524261010082015242610120820152835f52600160205260405f2090805182556001820160018060a01b036020830151166bffffffffffffffffffffffff60a01b82541617905560408101518051906001600160401b0382116106f457610a1982610a1060028701546110e0565b6002870161125e565b602090601f8311600114610d5357610a4792915f9183610cda5750508160011b915f199060031b1c19161790565b60028301555b60608101518051906001600160401b0382116106f457610a7d82610a7460038701546110e0565b6003870161125e565b602090601f8311600114610ce557610aab92915f9183610cda5750508160011b915f199060031b1c19161790565b60038301555b60808101518051906001600160401b0382116106f457610ae182610ad860048701546110e0565b6004870161125e565b602090601f8311600114610c6857826101209360099593610b16935f92610c5d5750508160011b915f199060031b1c19161790565b60048501555b6005840160018060a01b0360a0830151166bffffffffffffffffffffffff60a01b82541617905560c08101516006850155610b6c60e08201511515600786019060ff801983541691151516179055565b610100810151600885015501519101556004355f526002602052610b938360405f206112ad565b5f5b81600401358110610bf5575050610bba602093604051926040845260408401916112f6565b60a43584830152827f2f97baea4f38ff977318c4e4648cfa7b665121ba164e1cb7070d29a78f59f475339380600435940390a4604051908152f35b80610c0a6001928460040135602486016112e6565b355f526003602052610c1f8560405f206112ad565b610c31818460040135602486016112e6565b35857f6e02f3582baab8ea69670589bccc675b69e5c12f51ff41245c97ae066151fa1f5f80a301610b95565b015190508b8061054e565b90600485015f5260205f20915f5b601f1985168110610cc2575092600994926001926101209583601f19811610610caa575b505050811b016004850155610b1c565b01515f1960f88460031b161c191690558a8080610c9a565b91926020600181928685015181550194019201610c76565b01519050898061054e565b9190600385015f5260205f20905f935b601f1984168510610d38576001945083601f19811610610d20575b505050811b016003830155610ab1565b01515f1960f88460031b161c19169055888080610d10565b81810151835560209485019460019093019290910190610cf5565b9190600285015f5260205f20905f935b601f1984168510610da6576001945083601f19811610610d8e575b505050811b016002830155610a4d565b01515f1960f88460031b161c19169055888080610d7e565b81810151835560209485019460019093019290910190610d63565b604051630e41dcbf60e21b8152600490fd5b90506020813d602011610e0d575b81610dee60209383611134565b8101031261011857516001600160a01b0381168103610118578961091a565b3d9150610de1565b6040513d5f823e3d90fd5b3461011857610e2e36610fb0565b905f52600260205260405f20805482101561011857602091610e4f91610f87565b90546040519160031b1c8152f35b34610118576040366003190112610118576024356004355f52600360205260405f20805482101561011857602091610e9491610f87565b90549060031b1c604051908152f35b34610118575f366003190112610118576040517f00000000000000000000000000000000000000000000000000000000000000006001600160a01b03168152602090f35b34610118576020906020600319360112610118576004355f52600260205260405f2091825480835260208301935f5260205f20915f905b828210610f35576100fd856100f181890382611134565b835486529485019460019384019390910190610f1e565b60209060206040818301928281528551809452019301915f5b828110610f73575050505090565b835185529381019392810192600101610f65565b8054821015610f9c575f5260205f2001905f90565b634e487b7160e01b5f52603260045260245ffd5b6040906003190112610118576004359060243590565b9181601f84011215610118578235916001600160401b038311610118576020838186019501011161011857565b608435906001600160a01b038216820361011857565b91908251928382525f5b848110611033575050825f602080949584010152601f8019910116010190565b602081830181015184830182015201611013565b9061014091805182526110a661109461108260208401519560018060a01b038097166020870152604085015190806040880152860190611009565b60608401518582036060870152611009565b60808301518482036080860152611009565b9260a08201511660a083015260c081015160c083015260e0810151151560e083015261010080820151908301526101208091015191015290565b90600182811c9216801561110e575b60208310146110fa57565b634e487b7160e01b5f52602260045260245ffd5b91607f16916110ef565b61014081019081106001600160401b038211176106f457604052565b90601f801991011681019081106001600160401b038211176106f457604052565b9060405191825f8254611167816110e0565b908184526020946001916001811690815f146111d55750600114611197575b50505061119592500383611134565b565b5f90815285812095935091905b8183106111bd57505061119593508201015f8080611186565b855488840185015294850194879450918301916111a4565b9250505061119594925060ff191682840152151560051b8201015f8080611186565b5f1981146112055760010190565b634e487b7160e01b5f52601160045260245ffd5b9291926001600160401b0382116106f45760405191611242601f8201601f191660200184611134565b829481845281830111610118578281602093845f960137010152565b601f821161126b57505050565b5f5260205f20906020601f840160051c830193106112a3575b601f0160051c01905b818110611298575050565b5f815560010161128d565b9091508190611284565b8054680100000000000000008110156106f4576112cf91600182018155610f87565b819291549060031b91821b915f19901b1916179055565b9190811015610f9c5760051b0190565b908060209392818452848401375f828201840152601f01601f1916010190565b6001600160401b0381116106f45760051b60200190565b6040519061133a82611118565b5f6101208382815282602082015260606040820152606080820152606060808201528260a08201528260c08201528260e0820152826101008201520152565b8051821015610f9c5760209160051b010190565b5f805490939092845b84811061156b5750848310156115445782850390858211611205578082101561153d57505b6113c481611316565b9060406113d46040519384611134565b818352601f196113e383611316565b015f5b81811061152657505082965f945f935f5b8981108061151d575b1561151157805f526001602090808252865f209060ff6007830154169081611435575b50505050611430906111f7565b6113f7565b8c8c959c101561145a575b50505050611450611430916111f7565b97905f8080611423565b92600961150893611430969b93611450968c519461147786611118565b8354865260018060a01b038092850154169086015261149860028401611155565b8d8601526114a860038401611155565b60608601526114b960048401611155565b608086015260058301541660a0850152600682015460c0850152151560e0840152600881015461010084015201546101208201526114f7828c611379565b52611502818b611379565b506111f7565b96915f80611440565b50509550955050505050565b50818610611400565b60209061153161132d565b828288010152016113e6565b90506113bb565b50915050604051602081018181106001600160401b038211176106f4576040525f81529190565b805f52600160205260ff600760405f2001541661158b575b600101611396565b946115976001916111f7565b95905061158356fea2646970667358221220c9df69255902353a7a82947effc1613d5a19bc1558c558a2ebf647e308fa712f64736f6c63430008170033","linkReferences":{}},"methodIdentifiers":{"agentServices(uint256,uint256)":"6696ff26","deactivateService(uint256)":"ec9c3212","getActiveServices(uint256,uint256)":"bf00fae3","getAgentServices(uint256)":"05309849","getService(uint256)":"ef0e239b","getServicesByTag(bytes32)":"fdea812f","identityRegistry()":"134e18f4","nextServiceId()":"f6c53d9b","registerService(uint256,string,string,string,address,uint256,bytes32[])":"6effd6e4","services(uint256)":"c22c4f43","servicesByTag(bytes32,uint256)":"3c3f8c64","updateService(uint256,string,string,string,address,uint256,bool)":"b5816999"},"id":23}