{"abi":[{"type":"function","name":"approve","inputs":[{"name":"","type":"address","internalType":"address"},{"name":"","type":"uint256","internalType":"uint256"}],"outputs":[],"stateMutability":"nonpayable"},{"type":"function","name":"balanceOf","inputs":[{"name":"","type":"address","internalType":"address"}],"outputs":[{"name":"","type":"uint256","internalType":"uint256"}],"stateMutability":"pure"},{"type":"function","name":"getApproved","inputs":[{"name":"","type":"uint256","internalType":"uint256"}],"outputs":[{"name":"","type":"address","internalType":"address"}],"stateMutability":"pure"},{"type":"function","name":"isApprovedForAll","inputs":[{"name":"","type":"address","internalType":"address"},{"name":"","type":"address","internalType":"address"}],"outputs":[{"name":"","type":"bool","internalType":"bool"}],"stateMutability":"pure"},{"type":"function","name":"mint","inputs":[{"name":"to","type":"address","internalType":"address"}],"outputs":[{"name":"tokenId","type":"uint256","internalType":"uint256"}],"stateMutability":"nonpayable"},{"type":"function","name":"nextTokenId","inputs":[],"outputs":[{"name":"","type":"uint256","internalType":"uint256"}],"stateMutability":"view"},{"type":"function","name":"ownerOf","inputs":[{"name":"tokenId","type":"uint256","internalType":"uint256"}],"outputs":[{"name":"","type":"address","internalType":"address"}],"stateMutability":"view"},{"type":"function","name":"safeTransferFrom","inputs":[{"name":"","type":"address","internalType":"address"},{"name":"","type":"address","internalType":"address"},{"name":"","type":"uint256","internalType":"uint256"}],"outputs":[],"stateMutability":"nonpayable"},{"type":"function","name":"safeTransferFrom","inputs":[{"name":"","type":"address","internalType":"address"},{"name":"","type":"address","internalType":"address"},{"name":"","type":"uint256","internalType":"uint256"},{"name":"","type":"bytes","internalType":"bytes"}],"outputs":[],"stateMutability":"nonpayable"},{"type":"function","name":"setApprovalForAll","inputs":[{"name":"","type":"address","internalType":"address"},{"name":"","type":"bool","internalType":"bool"}],"outputs":[],"stateMutability":"nonpayable"},{"type":"function","name":"supportsInterface","inputs":[{"name":"","type":"bytes4","internalType":"bytes4"}],"outputs":[{"name":"","type":"bool","internalType":"bool"}],"stateMutability":"pure"},{"type":"function","name":"transferFrom","inputs":[{"name":"","type":"address","internalType":"address"},{"name":"","type":"address","internalType":"address"},{"name":"","type":"uint256","internalType":"uint256"}],"outputs":[],"stateMutability":"nonpayable"}],"bytecode":{"object":"0x6080806040523461001657610379908161001b8239f35b5f80fdfe6080604090808252600480361015610015575f80fd5b5f3560e01c91826301ffc9a7146102ba57508163081812fc1461029f578163095ea7b31461028557816323b872dd1461028057816342842e0e146102805781636352211e146102015781636a6278421461018e57816370a082311461017157816375794a3c14610153578163a22cb4651461012d578163b88d4fde146100d3575063e985e9c5146100a4575f80fd5b346100cf57806003193601126100cf576020906100bf6102e6565b506100c86102fc565b50515f8152f35b5f80fd5b346100cf5760803660031901126100cf576100ec6102e6565b506100f56102fc565b506064359067ffffffffffffffff908183116100cf57366023840112156100cf578201359081116100cf57369101602401116100cf57005b82346100cf573660031901126100cf576101456102e6565b50602435801515036100cf57005b82346100cf575f3660031901126100cf576020906001549051908152f35b82346100cf5760203660031901126100cf576020906100c86102e6565b82346100cf5760203660031901126100cf576101a86102e6565b60015491905f1983146101ee576020935060018301600155825f525f8452815f209060018060a01b03166bffffffffffffffffffffffff60a01b82541617905551908152f35b601184634e487b7160e01b5f525260245ffd5b9050346100cf5760203660031901126100cf5780355f9081526020819052829020546001600160a01b031690811561023d575060209151908152f35b606490602084519162461bcd60e51b8352820152601960248201527f4552433732313a206e6f6e6578697374656e7420746f6b656e000000000000006044820152fd5b610312565b82346100cf573660031901126100cf5761029d6102e6565b005b82346100cf5760203660031901126100cf57602090515f8152f35b90346100cf5760203660031901126100cf57356001600160e01b03198116036100cf5780600160209252f35b600435906001600160a01b03821682036100cf57565b602435906001600160a01b03821682036100cf57565b346100cf5760603660031901126100cf576001600160a01b03600435818116036100cf57602435908116036100cf5700fea2646970667358221220e3fc5b33de934f41b4da779eaa9f2e42b6e25e2c2d72685c8d3dd80ee79ec27964736f6c63430008170033","linkReferences":{}},"methodIdentifiers":{"approve(address,uint256)":"095ea7b3","balanceOf(address)":"70a08231","getApproved(uint256)":"081812fc","isApprovedForAll(address,address)":"e985e9c5","mint(address)":"6a627842","nextTokenId()":"75794a3c","ownerOf(uint256)":"6352211e","safeTransferFrom(address,address,uint256)":"42842e0e","safeTransferFrom(address,address,uint256,bytes)":"b88d4fde","setApprovalForAll(address,bool)":"a22cb465","supportsInterface(bytes4)":"01ffc9a7","transferFrom(address,address,uint256)":"23b872dd"},"id":25}